:100000000C9446000C9463000C9463000C94630001
:100010000C9463000C9463000C9463000C94D9025C
:100020000C9463000C94C9030C9463000C94670354
:100030000C94FD020C9463000C9498030C9432040D
:100040000C9463000C9463000C9463000C946300A4
:100050000C9463000C9463000C9463000C94630094
:100060000C9463000C9463000C94FA030C946300EA
:100070000C9463000C9463000C9463000C94630074
:100080000C9463000C9463000C94630011241FBE55
:10009000CFEFD0E1DEBFCDBF16E0A0E0B1E0E8E7F2
:1000A000FCE700E00BBF02C007900D92A438B10737
:1000B000D9F71BE0A4E8B6E001C01D92A038B10753
:1000C000E1F70C947D000C9400000E94DD0980E0B3
:1000D00090E00895E0E0F0E0119280E1E030F80770
:1000E000D8F308950E94FB3181E080938C06682F3D
:1000F000809136070E94D1170895CDEDD0E1DEBF83
:10010000CDBF0E94DD090E9463020E949E020E94F0
:1001100028020E94B20A0E9471040E94AA0F0E9443
:10012000610410928C060E94FF040E94E3310E9439
:10013000EE310E94FB0D0E9428160E94443288E195
:100140000FB681BD11BC0FBE8091160790911707A5
:100150009F938F930E945A12DC01CB01BF93AF9300
:100160009F938F9380E091E09F938F930E94063C32
:100170000E942A0B8DB79EB708960FB6F8949EBFC3
:100180000FBE8DBF8091E20799278630910521F13E
:100190008730910534F4009789F0049709F4A8C0DA
:1001A0003BC18F30910579F1803191051CF40A979C
:1001B00001F132C1429709F4B4C02EC10E94281641
:1001C00081E00E948E161092B20726E048E050E0CF
:1001D00060E070E080E00AC084E391E00E941B3C94
:1001E00026E048E050E060E070E081E00E94992461
:1001F00013C180E591E00E941B3C61E080913607CD
:100200000E94D11709C18090B2078820F1F48DE6D1
:1002100091E00E941B3C80918D0890918E0889830B
:100220009A8388E8A82EC980DA80EB80FC800D8153
:100230001E812F813885409193085091940862E087
:10024000809136070E941D27E7C080918C06882385
:1002500009F4E2C082E0898780918D0890918E0830
:100260008A8B9B8B20919308309194082C8B3D8B2B
:1002700083E08E8B88E0A9E9B8E0FE0177960D90C7
:1002800001928A95E1F729A33AA381E08F931F9207
:1002900081EF96E09F938F9384E18F938DB79EB704
:1002A0000D970FB6F8949EBF0FBE8DBFADB7BEB70A
:1002B00011968DE0FE01769601900D928A95E1F7F8
:1002C000C984DA84EB84FC840D851E852F853889EA
:1002D00049895A896B897C898D890E94FC288DB750
:1002E0009EB742960FB6F8949EBF0FBE8DBF94C0C6
:1002F0008091E4079091E507892B79F48091B90703
:100300009091BA07892B49F480917A0990917B09E1
:10031000892B19F481E08093B20782E18093E20790
:100320007BC083E00E94121010928C0602E710E05E
:1003300020E031E040E050E061E080E00E942D05E7
:100340000E9475020E943A020E94B00288E00E9458
:10035000900B88E00E94900B62E0809116079091CC
:1003600017070E94A713909317078093160761E061
:100370000E94A7139093170780931607892B39F0D3
:10038000E0911607F09117076081CF01F1CF8091BE
:100390007A0990917B09892B71F0E0917A09F091AB
:1003A0007B0942816181CF010E94C41590937B0932
:1003B00080937A09F0CF8091E4079091E507892B2B
:1003C00039F08091E4079091E5070E94F21BF3CF8A
:1003D0008091B9079091BA07892B41F0E091B90754
:1003E000F091BA0783810E94001CF2CF80916C08C3
:1003F00090916D08892B39F080916C0890916D086F
:100400000E949C1AF3CF88E891E00E941B3C81E196
:100410008093E2070E946C040E94C404B3CE1F9331
:100420000E946504182F109239070E943E070E940F
:100430005A070E944D070E9431070E9451070E94EF
:100440004207812F0E94630480E090E01F9108958D
:100450001F930E946504182F0E945307809139074B
:10046000846080933907812F0E94630480E090E0CC
:100470001F9108951F930E946504182F0E94510731
:10048000809139078B7F80933907812F0E94630405
:1004900080E090E01F9108951F93CF930E94650420
:1004A000182F8091390782FF03C00E943A0202C0D0
:1004B0000E942802C82F812F0E9463048C2F992745
:1004C000CF911F9108951F930E946504182F0E94D9
:1004D000440780913907826080933907812F0E94F9
:1004E000630480E090E01F9108951F930E946504CB
:1004F000182F0E944207809139078D7F809339071A
:10050000812F0E94630480E090E01F9108951F9363
:10051000CF930E946504182F8091390781FF03C093
:100520000E94750202C00E946302C82F812F0E94A0
:1005300063048C2F9927CF911F9108951F930E94D8
:100540006504182F0E9433078091390781608093DA
:100550003907812F0E94630480E090E01F91089585
:100560001F930E946504182F0E943107809139075C
:100570008E7F80933907812F0E94630480E090E092
:100580001F9108951F93CF930E946504182F8091A7
:10059000390780FF03C00E94B00202C00E949E0281
:1005A000C82F812F0E9463048C2F9927CF911F9110
:1005B00008951F920F920FB60F9211242F933F931D
:1005C0004F935F936F937F938F939F93AF93BF935B
:1005D000EF93FF930E947E0DFF91EF91BF91AF913A
:1005E0009F918F917F916F915F914F913F912F914B
:1005F0000F900FBE0F901F90189578941F920F9236
:100600000FB60F921124EF92FF920F931F932F9327
:100610003F934F935F936F937F938F939F93AF938A
:10062000BF93CF93DF93EF93FF930E945A12DC01A5
:10063000CB01E0911607F0911707238134814581A2
:1006400056812070307080709070281739074A07E3
:100650005B0731F50E946504E82E009116071091A2
:100660001707F801F0800E94D712EC01E0911607FD
:10067000F091170787859089909317078093160745
:10068000C8010E94A43B209719F0DBBDCABD02C07F
:100690000E9491128E2D0E9463048F2D0E94D71309
:1006A000FF91EF91DF91CF91BF91AF919F918F918A
:1006B0007F916F915F914F913F912F911F910F917A
:1006C000FF90EF900F900FBE0F901F9018957894A9
:1006D0001F920F920FB60F9211241F932F933F93E7
:1006E0004F935F936F937F938F939F93AF93BF933A
:1006F000EF93FF930E946504182F0E945512909368
:10070000CE068093CD06812F0E946304FF91EF9166
:10071000BF91AF919F918F917F916F915F914F9119
:100720003F912F911F910F900FBE0F901F90189522
:1007300078941F920F920FB60F9211242F933F932C
:100740004F935F936F937F938F939F93AF93BF93D9
:10075000EF93FF930E9465042091180730911907C9
:100760002F5F3F4F30931907209318070E946304AF
:10077000FF91EF91BF91AF919F918F917F916F9179
:100780005F914F913F912F910F900FBE0F901F904F
:10079000189578941F920F920FB60F9211241F9301
:1007A0002F933F934F935F936F937F938F939F9379
:1007B000AF93BF93EF93FF930E946504182F0E949D
:1007C0006C141092C906812F0E9463040E94981431
:1007D000FF91EF91BF91AF919F918F917F916F9119
:1007E0005F914F913F912F911F910F900FBE0F90EE
:1007F0001F90189578941F920F920FB60F921124A4
:100800002F933F934F935F936F937F938F939F9318
:10081000AF93BF93CF93EF93FF930E946504C82FCC
:100820000E943B15009729F09093870080938600E3
:1008300002C00E94BA148C2F0E9463040E94C91443
:10084000FF91EF91CF91BF91AF919F918F917F9148
:100850006F915F914F913F912F910F900FBE0F902D
:100860001F90189578941F920F920FB60F92112433
:100870001F932F933F934F935F936F937F938F9328
:100880009F93AF93BF93EF93FF930E946504182F3C
:1008900089E196E00E947604812F0E946304FF9113
:1008A000EF91BF91AF919F918F917F916F915F91E8
:1008B0004F913F912F911F910F900FBE0F901F905E
:1008C0001895789408958FBF08958FB7F894992755
:1008D000089500000000089585B7806285BF88955F
:1008E00008951092C206109288060895BC018FB731
:1008F000F894482F55272091C206E22FFF27EE0FCC
:10090000FF1FE852F94F80819181892B51F42F5FAD
:1009100027702093C206608371834FBF81E090E00F
:1009200008954FBF80E090E0089508959F938F93BE
:1009300081EA91E09F938F930E94063C0F900F9065
:100940000F900F9008958FB7F894482F55279091E6
:100950008806E92FFF27EE0FFF1FE852F94F20818D
:1009600031812115310519F44FBFF9010BC01082F7
:1009700011829F5F9770909388064FBFF901099588
:10098000E1E0F0E0CF0108958FB7F894482F5527A4
:1009900090918806E92FFF27EE0FFF1FE852F94FCD
:1009A000208131812115310511F44FBF09C010821A
:1009B00011829F5F9770909388064FBFF901099548
:1009C000000000000895282F80B799278670907046
:1009D000892B61F42B3F10F08AEF06C0233010F40E
:1009E00082E002C0822F815012BE81BF0895089517
:1009F00081B78F5F9927089582B7992708951F932C
:100A00001092C5061092C6061092C7061092C8062C
:100A100010928A068FEF8093BD068093E8061092AD
:100A2000070785E08093890616EE109305070E945C
:100A3000650497B79E7F97BF97B79D7F97BF90B785
:100A4000986090BF9DE093BF12BE11BF97B79260B0
:100A500097BF0E9463041F910895AF92BF92CF92F7
:100A6000DF92EF92FF920F931F93CF9359016A0188
:100A70009801833008F058C0623008F055C0E82E65
:100A8000FF248BE090E0E89E8001E99E100DF89E27
:100A9000100D11240856194FF801A182B282C382A9
:100AA000D4826083218732870E946504C82F82B771
:100AB000A80EB11CC11CD11CF801A582B682C78248
:100AC000D08621E030E040E050E004C0220F331F28
:100AD000441F551FEA94D2F78091C5069091C6062F
:100AE000A091C706B091C806822B932BA42BB52BDF
:100AF0008093C5069093C606A093C706B093C80618
:100B0000809105079927AA27BB27A816B906CA0608
:100B1000DB0638F4A09205078A2D0E94E3041092A8
:100B20008A068C2F0E94630480E090E0CF911F9191
:100B30000F91FF90EF90DF90CF90BF90AF9008950E
:100B4000EF92FF920F931F938330E8F591E0E92E27
:100B5000F12C012D112D04C0EE0CFF1C001F111FE4
:100B60008A95D2F78091C5069091C606A091C706D6
:100B7000B091C8068E219F21A023B1230097A10523
:100B8000B10509F10E946504E094F0940095109578
:100B90008091C5069091C606A091C706B091C8067F
:100BA0008E219F21A023B1238093C5069093C60672
:100BB000A093C706B093C8060097A105B10519F424
:100BC00081E080938A061F910F91FF90EF90089526
:100BD00090910707992319F423E030E016C0809123
:100BE000E806823019F48FEF8093E8068091E806DA
:100BF0008F5F8093E806915090930707E82FFF27B7
:100C0000E357F94F8081282F3327233080F433278F
:100C10008BE090E0289FF001299FF00D389FF00DA8
:100C20001124E856F94F0184F285E02D09950895C5
:100C300008954F925F926F927F929F92AF92BF9270
:100C4000CF92DF92EF92FF920F931F93CF93DF9398
:100C500081E080938A068091C5069091C606A09196
:100C6000C706B091C8060097A105B10509F489C06F
:100C7000992468E9C62E66E0D62EAA24BB2451E04A
:100C8000E52EF12C012D112D0A2C04C0EE0CFF1CB9
:100C9000001F111F0A94D2F74090C5065090C60657
:100CA0006090C7067090C806D301C2018E219F21B3
:100CB000A023B1230097A105B10509F456C0809186
:100CC000050799270196AA2797FDA095BA2FF60147
:100CD0002581368147815085281B390B4A0B5B0BD8
:100CE00025833683478350872330310541055105DD
:100CF000E4F58081882369F481819281A381B481A4
:100D0000280F391F4A1F5B1F25833683478350876F
:100D100012C0D801C70180959095A095B095482242
:100D200059226A227B224092C5065092C6066092E2
:100D3000C7067092C8068091BD06823019F48FEF05
:100D40008093BD069091BD069F5F9093BD068091F4
:100D500007078F5F80930707E92FFF27E357F94FB6
:100D6000908288EE95E00E94760493940894A11CEA
:100D7000B11C8BE090E0C80ED91E92E0991508F0E6
:100D80007ECF46EEE42E4090C5065090C606609099
:100D9000C7067090C806411451046104710499F1AA
:100DA00031E0A32EB12CC12CD12C68E976E000E013
:100DB00010E022E0F22ED601C501002E04C0880FFB
:100DC000991FAA1FBB1F0A94D2F784219521A6213F
:100DD000B7210097A105B10579F02E2D33274427BF
:100DE0005527FB0185819681A781B08582179307DE
:100DF000A407B5070CF4E580FA940F5F1F4F655FF9
:100E00007F4FF7FED8CF0E946504182FE0920507A8
:100E10008E2D0E94E30410928A06812F0E946304A3
:100E2000DF91CF911F910F91FF90EF90DF90CF90C6
:100E3000BF90AF909F907F906F905F904F9008957C
:100E40000000000008951816190654F40000000070
:100E50000000000000000000000000000197F3CF38
:100E60000895DA9A0895DA98089589B3992796959E
:100E7000879596958795817090700895D29A089578
:100E8000D2980895D99A0895D998089589B3992741
:100E900096958795817090700895D19A0895D1980C
:100EA0000895D89A0895D898089589B3992781709C
:100EB00090700895D09A0895D0980895DC9A089576
:100EC000DC98089589B3992744E0969587954A95CB
:100ED000E1F7817090700895D49A0895D498089598
:100EE000DD9A0895DD98089589B3992755E0969580
:100EF00087955A95E1F7817090700895D59A089575
:100F0000D5980895DF9A0895DF98089580E090E0DD
:100F1000CF9B02C081E090E008950895D79A08958C
:100F2000D7980895DE9A0895DE98089589B3992791
:100F300066E0969587956A95E1F7817090700895BF
:100F4000D69A0895D6980895DD9A0895DD98089563
:100F500089B3992775E0969587957A95E1F7817021
:100F600090700895D59A0895D59808951E9A089579
:100F70001E98089581B19927E6E096958795EA95A0
:100F8000E1F7817090700895169A08951698089563
:100F9000969A08959698089580B39927F6E09695C5
:100FA0008795FA95E1F78170907008958E9A08956B
:100FB0008E980895949A08959498089580B39927E7
:100FC000A4E096958795AA95E1F7817090700895B1
:100FD0008C9A08958C980895C09A0895C0980895A1
:100FE00086B39927817090700895B89A0895B8983B
:100FF0000895C79A0895C798089580E090E0B79B38
:1010000002C081E090E008950895BF9A0895BF98C6
:101010000895969A08959698089580B39927B6E012
:1010200096958795BA95E1F78170907008958E9A9C
:1010300008958E980895DB9A0895DB98089589B3F2
:10104000992723E0969587952A95E1F7817090700E
:101050000895D39A0895D3980895959A08959598E8
:10106000089580B3992735E0969587953A95E1F7ED
:101070008170907008958D9A08958D980895939A2F
:1010800008959398089580B3992743E0969587959E
:101090004A95E1F78170907008958B9A08958B9826
:1010A0000895929A08959298089580B399279695F5
:1010B0008795969587958170907008958A9A08957E
:1010C0008A9808951C9A08951C98089581B19927CB
:1010D00064E0969587956A95E1F781709070089520
:1010E000149A0895149808951D9A08951D980895C6
:1010F00081B1992775E0969587957A95E1F781708A
:1011000090700895159A0895159808951E9A089557
:101110001E98089581B19927E6E096958795EA95FE
:10112000E1F7817090700895169A089516980895C1
:101130001F9A08951F98089580E090E00F9B02C0C9
:1011400081E090E008950895179A089517980895FA
:10115000C29A0895C298089586B39927969587955F
:1011600096958795817090700895BA9A0895BA9867
:101170000895C39A0895C398089586B39927A3E064
:1011800096958795AA95E1F7817090700895BB9A1E
:101190000895BB980895C19A0895C198089586B39B
:1011A000992796958795817090700895B99A0895BA
:1011B000B9980895A89A0895A898089583B399278F
:1011C000817090700895A09A0895A0980895A99AA2
:1011D0000895A998089583B3992796958795817066
:1011E00090700895A19A0895A1980895AA9A0895D3
:1011F000AA98089583B3992796958795969587958C
:10120000817090700895A29A0895A2980895AB9A5B
:101210000895AB98089583B3992743E096958795F1
:101220004A95E1F7817090700895A39A0895A39864
:101230000895AC9A0895AC98089583B3992754E023
:10124000969587955A95E1F7817090700895A49AC4
:101250000895A4980895AD9A0895AD98089583B31C
:10126000992765E0969587956A95E1F7817090706A
:101270000895A59A0895A5980895AE9A0895AE98F0
:10128000089583B3992776E0969587957A95E1F747
:10129000817090700895A69A0895A6980895AF9ABF
:1012A0000895AF98089580E090E09F9B02C081E090
:1012B00090E008950895A79A0895A7980895909AA0
:1012C00008959098089580B399278170907008953B
:1012D000889A089588980895919A08959198089504
:1012E00080B3992796958795817090700895899A13
:1012F000089589980895189A08951898089581B1C5
:101300009927817090700895109A08951098089503
:10131000199A08951998089581B1992796958795F6
:10132000817090700895119A0895119808951A9AED
:1013300008951A98089581B199279695879596955D
:101340008795817090700895129A08951298089563
:10135000929A08959298089580B3992796958795C3
:10136000969587958170907008958A9A08958A98C5
:101370000895939A08959398089580B3992723E048
:10138000969587952A95E1F78170907008958B9ACC
:1013900008958B980895959A08959598089580B327
:1013A000992735E0969587953A95E1F78170907089
:1013B00008958D9A08958D9808950E943E070E9481
:1013C0005A070E944D070E945B090E944B090E9428
:1013D00039090E9427090E9415090E9403090E94E9
:1013E000F2080E94E3080E94C9080E94B5080E9402
:1013F000D6080E94A0070E94B2070E94F7070E9429
:10140000C6070E94D8070E94EA070E9407080E94A8
:1014100019080E946E070E9460070E9429080E9416
:101420004D080E943B080E941B080E9431070E9441
:1014300051070E9442070895CF93DF93CDB7DEB7DF
:1014400022970FB6F894DEBF0FBECDBF81E089832F
:101450001A8280E090E029813A812130310509F437
:10146000C90122960FB6F894DEBF0FBECDBFDF9143
:10147000CF910895CF93DF93CDB7DEB722970FB604
:10148000F894DEBF0FBECDBFAC0181E089831A8224
:1014900089819A81019711F49A0102C0252F342F76
:1014A000C90122960FB6F894DEBF0FBECDBFDF9103
:1014B000CF910895CF93DF93CDB7DEB722970FB6C4
:1014C000F894DEBF0FBECDBFAC0181E089831A82E4
:1014D00089819A81019711F49A0102C0252F342F36
:1014E000C90122960FB6F894DEBF0FBECDBFDF91C3
:1014F000CF910895882319F0862F9927089580E0C9
:1015000090E008950895982F442311F0332702C0E6
:1015100020E030E0662311F0332702C020E030E005
:10152000992311F0332702C020E030E0822F992761
:101530000895CF93C82F8A3019F48DE00E94990A3C
:101540005D9BFECFCCB980E090E0CF9108955D9B8C
:10155000FECF8CB980E090E008955F9BFECF8CB108
:101560009927089588E18AB988E089B940E050E078
:101570006DEA7AE089E99AE00E94793A089581E07B
:10158000809387060E94C9080E94B5080E94D60869
:101590000E94A0070E94B2070E94F5070E94C6079A
:1015A0000E94D8070E94EA070E94070880E090E0A6
:1015B000089580E098EF90931B0780931A0782EEBE
:1015C00092E090931D0780931C0780E095E0909334
:1015D0001F0780931E0780E890EE90932107809369
:1015E00020078FE097EA90932307809322078FEFDD
:1015F00090E6909325078093240785EE92E19093DF
:1016000027078093260786E59AE090932907809321
:1016100028078DE391E490932B0780932A0784ECAD
:1016200091E090932D0780932C0710922F07109232
:101630002E0710923107109230078FE792E09093B7
:10164000330780933207109235071092340780E0F9
:1016500090E008958AB78F7E8ABF8AB780628ABF7A
:1016600089B7806489BF80E090E008950F931F934D
:10167000CF93DF93182F0E946504082F10928706DE
:101680000E94EE0710641FB9779BFECF8FB11FB881
:10169000779BFECF8FB1C82FDD271FB8779BFECF7A
:1016A000DC2FCC278FB19927C82BD92B0E94EC07B0
:1016B00081E080938706802F0E946304CE01DF9132
:1016C000CF911F910F910895FF920F931F93CF9386
:1016D000DF93182FEB010E946504F82E1092870605
:1016E0000E94EE071FB9779BFECF0FB11F3040F06D
:1016F0008D2F99278FB9779BFECFCFB9779BFECFE0
:1017000081E0809387068F2D0E9463040E94EC077E
:10171000802F9927DF91CF911F910F91FF9008950E
:101720001F93CF93182F0E946504C82F0E94EE07C5
:101730001FB9779BFECF1FB18C2F0E9463040E94BC
:10174000EC07812F9927CF911F91089560911A0777
:1017500070911B0780E10E94640B60911C077091DF
:101760001D0781E10E94640B81E10E94360B2091EC
:101770001C0730911D078217930719F080E090E055
:10178000089560911E0770911F0782E10E94640B0B
:10179000609120077091210783E10E94640B6091A2
:1017A00022077091230784E10E94640B6091240753
:1017B0007091250785E10E94640B60912607709166
:1017C000270786E10E94640B609128077091290722
:1017D00087E10E94640B60912A0770912B0788E1D2
:1017E0000E94640B60912C0770912D0789E10E9483
:1017F000640B60912E0770912F078AE10E94640BA1
:1018000060913207709133078CE10E94640B609104
:101810003407709135078DE10E94640B89E00E94C6
:10182000900B88E00E94900B81E090E0089508956D
:10183000DF92EF92FF920F931F93CF93DF93EC0110
:10184000062F7A0110E0809187068823B9F10E9463
:101850006504D82E10938706D0930A07C093090712
:101860000093CF060E94EE078091090780688FB928
:10187000779BFECF8FB18091090790910A079695CB
:101880008795807E8FB9779BFECF8FB11FB810E010
:101890008091CF06181750F4779BFECFF701E10F28
:1018A000F11D8FB180831FB81F5FF2CF0E94EC073C
:1018B0008D2D0E94630481E08093870680E090E094
:1018C000DF91CF911F910F91FF90EF90DF900895DE
:1018D000CF92DF92EF92FF920F931F93CF93DF93FC
:1018E000CDB7DEB721970FB6F894DEBF0FBECDBFE0
:1018F0006C01F62E8A0190E080918706882309F416
:1019000040C099830E946504E82E998190938706D0
:10191000D0920A07C0920907F092CF061093EA0608
:101920000093E9060E94EE078091090780688FB94D
:10193000779BFECF8FB18091090790910A0796950A
:101940008795807C8FB9779BFECF8FB190E04091D7
:10195000CF06941770F42091E9063091EA06F90158
:10196000E90FF11D80818FB9779BFECF9F5F9417A0
:10197000B0F30E94EC078E2D0E94630481E08093F7
:10198000870680E090E021960FB6F894DEBF0FBE88
:10199000CDBFDF91CF911F910F91FF90EF90DF901E
:1019A000CF900895FF920F931F93CF93F82E8B0142
:1019B0000E946504C82F1092C306F092BF061093D0
:1019C0008506009384060E94EE078EE38FB9779B0D
:1019D000FECF0FB19091BF069E5F9FB99250779B4B
:1019E000FECF0FB120E0291770F4E0918406F0914A
:1019F000850681918FB9F0938506E0938406779BE5
:101A0000FECF2F5FF0CF81E08093C3068C2F0E9422
:101A100063040E94EC07802F9927CF911F910F91AB
:101A2000FF9008950F931F93CF930E946504C82FD2
:101A30001092C3060E94EE078FE78FB9779BFECF07
:101A40008FB11FB8779BFECF9FB190931207809103
:101A50008606082F1127000F111F025F184F892FCC
:101A6000992701960E94F53AF8018083918390911D
:101A70001207992351F180918606E82FFF27EE0F78
:101A8000FF1FE25FF84F0190F081E02D908380917D
:101A900012078F5F8093120791E09817B0F41FB878
:101AA000779BFECF80918606E82FFF27EE0FFF1F62
:101AB000E25FF84F0190F081E02DE90FF11D8FB149
:101AC00080839F5F80911207E8CF81E08093C306F7
:101AD00080910807815080930807809186068F5F68
:101AE0008170809386068C2F0E9463040E94EC070D
:101AF0000E948411CF911F910F9108950E94FD07BC
:101B0000892B61F48FE30E94360B1092080788E05E
:101B10000E94900B88E00E94900B1AC080910807E9
:101B20008F5F809308070E945514DC01CB018093DE
:101B3000B9069093BA06A093BB06B093BC068091F9
:101B40001307823028F48F5F809313070E94120DD1
:101B500080E090E008951F93CF9310E0C12F81E0C3
:101B60000E94900B84E690E00E94230780E00E9490
:101B7000900B86FD11E0CF5FC83C10F4112391F368
:101B800080E090E0CF911F91089587E00E94900B34
:101B900080E090E008950E94A40788E097E00E940A
:101BA000230780E090E008950E94A60788E097E070
:101BB0000E94230780E090E0089580911C07909197
:101BC0001D07806190931D0780931C07BC0181E174
:101BD0000E94640B9927089580911C0790911D071E
:101BE0008F7E90931D0780931C07BC0181E10E94AA
:101BF000640B9927089580911C0790911D079860A8
:101C000090931D0780931C07BC0181E10E94640B27
:101C10009927089580911C0790911D07977F9093B5
:101C20001D0780931C07BC0181E10E94640B99276A
:101C3000089583E00E94900B80E090E0089584E096
:101C40000E94900B80E090E0089585E00E94900B48
:101C500080E090E0089586E00E94900B80E090E0A4
:101C6000089595E0890290011124225D3E4F8091F4
:101C70002A0790912B0780709C7F822B932B909347
:101C80002B0780932A07BC0188E10E94640B80E047
:101C900090E00895CF93DF93CDB7DEB722970FB6CC
:101CA000F894DEBF0FBECDBF89839A830E943A0AA3
:101CB00089839A83AE014F5F5F4F62E08AE691E0CD
:101CC0000E94680C80E090E022960FB6F894DEBF88
:101CD0000FBECDBFDF91CF910895AC0162E08AE6DF
:101CE00091E00E94180C80E090E00895CF93DF937C
:101CF000CDB7DEB722970FB6F894DEBF0FBECDBFCB
:101D000089839A830E943A0A89839A83AE014F5F3E
:101D10005F4F62E088E691E00E94680C80E090E00E
:101D200022960FB6F894DEBF0FBECDBFDF91CF91E4
:101D30000895CF93DF93CDB7DEB722970FB6F8940F
:101D4000DEBF0FBECDBF89839A83AE014F5F5F4F69
:101D500062E088E691E00E94180C80E090E0229614
:101D60000FB6F894DEBF0FBECDBFDF91CF910895BF
:101D70008091320790913307986090933307809356
:101D80003207BC018CE10E94640B0895AC0168E04D
:101D900080E691E00E94180C0895AC0168E080E6AE
:101DA00091E00E94680C089580911C0790911D0796
:101DB000906190931D0780931C07BC0181E10E94F4
:101DC000640B08950F931F93CF931092EC0610921B
:101DD000EB061092BE061092860610921307109220
:101DE00008071092B9061092BA061092BB0610921C
:101DF000BC061092ED061092EE061092EF061092BD
:101E0000F00601E0009387060E94C9080E94B50809
:101E10000E94D6080E94A0070E94B2070E94F50700
:101E20000E94C6070E94D8070E94EA070E9407087E
:101E30000E946504182F0E94D6080E94C9080E94BB
:101E4000B508709A6C9A6B986A98699868986E9AB7
:101E5000812F0E9463040E94A40788E097E00E94FB
:101E600023070E94940784E190E00E94230784E105
:101E700090E00E9423070E949207C0E01C2F802F51
:101E80000E94900B84E690E00E94230780E00E946D
:101E9000900B86FDC1E01F5F183C10F4CC2391F33A
:101EA00080E098EF90931B0780931A0782EE92E0F0
:101EB00090931D0780931C0780E095E090931F0787
:101EC00080931E0780E890EE90932107809320076F
:101ED0008FE097EA90932307809322078FEF90E695
:101EE000909325078093240785EE92E1909327072E
:101EF0008093260786E59AE0909329078093280728
:101F00008DE391E490932B0780932A0784EC91E072
:101F100090932D0780932C0710922F0710922E0775
:101F200010923107109230078FE792E090933307B9
:101F30008093320710923507109234070E94A60B47
:101F400088E00E94900B88E00E94900BCF911F9137
:101F50000F91089593E0909336078FE180933707B0
:101F6000909338070E9479120E94E20E08950E9411
:101F7000D20C84E00E94900B0E94DE07892BE1F3D3
:101F80000E94DE070197E1F30E945514DC01CB01AA
:101F90008093ED069093EE06A093EF06B093F006C3
:101FA000BC01CD0108958CE20E94360B9C0181306A
:101FB000910519F488E090E008958032910531F0A0
:101FC0008297069718F02833310519F489E090E0DC
:101FD00008950E94CC07019719F484E090E00895D9
:101FE00080E090E008950895CF93DF93C0E0D0E0C3
:101FF0008CE20E94360B282F813011F4C8E00EC00D
:10200000803229F08252863010F0283311F4C9E072
:1020100005C0C7E083E10E94360BD82FCE01DF91C7
:10202000CF9108951F93182F8CE20E94360B9C01CC
:10203000412F55274630510509F43DC04730510521
:1020400024F443305105E1F047C04830510521F0F8
:1020500049305105B9F040C08130910541F1829776
:10206000069788F1C901C097079768F1C9010397DE
:10207000049788F02031310571F02832310559F08C
:1020800086E025C00397049730F02031310519F020
:102090002832310519F481E090E020C0C90182970F
:1020A000069728F0205330402730310510F4CA013C
:1020B00015C084E00CC08297069728F0205330406A
:1020C0002730310518F482E090E008C083E00E94D8
:1020D000900B87E090E002C08AE090E01F910895A5
:1020E0006F927F928F929F92AF92BF92CF92DF9228
:1020F000EF92FF920F931F93CF93DF93CDB7DEB78D
:1021000023970FB6F894DEBF0FBECDBFAA24BB2421
:102110006501B601A5018601750135014601982FBB
:10212000E7E0E9831B828A83282F3327213031059A
:1021300099F0223031051CF4232B29F01FC02230E6
:10214000310599F01BC0809136078B83AE2EB92ED6
:10215000C82EC601B50119C0809137078B834E2F59
:10216000592F682FCB01BA0110C0809138078B839B
:10217000EE2EF92E082FC801B70107C08AE0898327
:10218000682E7A808B80C401B30123960FB6F89431
:10219000DEBF0FBECDBFDF91CF911F910F91FF909A
:1021A000EF90DF90CF90BF90AF909F908F907F90F7
:1021B0006F900895CF93DF93C7E0D0E0D82F992791
:1021C0008130910579F0823091051CF4892B21F042
:1021D00034C00297C9F031C060933607862F0E9441
:1021E000310E2CC06093370780912407909125070A
:1021F000807F262F3327822B932B90932507809364
:102200002407BC0185E116C060933807209124079C
:10221000309125072F73862F992746E0880F991F45
:102220004A95E1F7282B392B30931D0720931C0783
:10223000B90181E10E94640B01C0CAE0CE01DF91C7
:10224000CF910895AF92BF92CF92DF92EF92FF921B
:102250000F931F930E945A125B016C018091DC075F
:102260009091DD07A091DE07B091DF07A6019501EF
:10227000281B390B4A0B5B0BDA01C901B695A795F0
:102280009795879565E0E62EF12C012D112DBC0167
:10229000CD01A80197010E94063EDC01CB01E81A9E
:1022A000F90A0A0B1B0BEE0CFF1C001F111FEA0C96
:1022B000FB1C0C1D1D1D0E945A12DC01CB018E154A
:1022C0009F05A007B107B8F38AE00E94900B0E9417
:1022D000DE07892BE1F30E94DE070197E1F30E94FC
:1022E0005514DC01CB018093ED069093EE06A0938C
:1022F000EF06B093F0061F910F91FF90EF90DF90E3
:10230000CF90BF90AF900895DF92EF92FF920F931E
:102310001F93CF93DF938091860620911307820F3E
:10232000817080930B07E82FFF27EE0FFF1FE25FFE
:10233000F84FC081D181D093EC06C093EB06F980B1
:1023400083E0F822E880FE01EE0DF11D3197D08088
:102350008091CC0699278330910511F18430910545
:1023600024F4892B09F445C06EC0049709F06BC0B2
:10237000FF2009F043C02150209313078091B90634
:102380009091BA06A091BB06B091BC068C019D014C
:102390004D2DBE018E2D0E94DE1DF092CC0664C034
:1023A00082E0F81659F52150209313071092CC06BD
:1023B00040E06B8180917A0990917B090E94C4155D
:1023C00090937B0980937A098091B9069091BA061F
:1023D000A091BB06B091BC068C019D014D2D609172
:1023E000EB067091EC068E2D0E94DE1D1092CC063D
:1023F0003BC082E0F81611F0FF2011F4CE012DC091
:102400000E94C20280911307815080931307E091CC
:10241000EB06F091EC06818185FF02C00E9422113B
:102420008091B9069091BA06A091BB06B091BC0606
:102430008C019D014D2D6091EB067091EC068E2D67
:102440000E94DE1D11C080910B07E82FFF27EE0FC1
:10245000FF1FE25FF84F808191810E94A43B809131
:1024600013078150809313070E946504C82F809141
:102470001307882359F480910807882339F081E0F5
:102480008093130782E19DE00E9476048C2F0E94C6
:102490006304DF91CF911F910F91FF90EF90DF9038
:1024A000089508958CB59DB5089580911807909171
:1024B00019070895EF92FF920F931F930E946504EE
:1024C000282F8CB59DB57C01009118071091190734
:1024D00006B602FE04C097FD02C00F5F1F4F822F99
:1024E0000E946304C801B7011F910F91FF90EF9004
:1024F000089510921707109216071092190710925C
:1025000018071DBC1CBC1FBC1EBC0E94650497B7ED
:10251000946297BF0E94630485EC8EBD08951EBC33
:1025200008950E94650497B79F7E97BF0E94630439
:1025300008950F931F938C010E94650496B79061D4
:1025400096BF1BBD0ABD97B7906197BF0E946304F9
:1025500080E090E01F910F9108950E9499120895D4
:10256000EF92FF920F931F937B018C01EE0CFF1CE7
:10257000001F111F0E945A12DC01CB01E80EF91E48
:102580000A1F1B1FC801B7011F910F91FF90EF9009
:1025900008950F931F938C010E9465041BBD0ABD13
:1025A0000E94630481E090E01F910F910895E091F3
:1025B0001607F09117070784F089E02D309719F07E
:1025C000818192810895CF01089508952F923F92BD
:1025D0004F925F926F927F928F929F92AF92BF9233
:1025E000CF92DF92EF92FF920F931F93CF93DF93DF
:1025F0003C01162F19012A0181E190E00E94F53A71
:102600004C01FC011786108A10836114710489F54E
:10261000C201B1010E94B0127B018C016F3FFFEF3C
:102620007F07F0E08F07F0E09F0710F4CB010BC0AD
:102630002FEFA22E2FEFB22EC12CD12CA622B72223
:10264000C822D922C5010E94991280E0E81680E0D4
:10265000F80681E0080780E0180710F0C50101C006
:10266000C701F40181839283E382F4820583168398
:1026700059C0C201B1010E94B0127B018C019FEFD1
:10268000A92E9FEFB92EC12CD12CAE20BF20C02285
:10269000D122F0E0EF16F0E0FF06F1E00F07F0E0E6
:1026A0001F0710F0C50101C0C701F40181839283A7
:1026B000E382F482058316836301E30161147104EC
:1026C000E9F08B819C81AD81BE81E816F9060A078D
:1026D0001B07A0F06E010F84D889C02D209771F0E0
:1026E000F40123813481458156818B819C81AD81A8
:1026F000BE81281739074A075B0760F7C615D7055B
:1027000049F00E94C202F6018786908AF401C787C9
:10271000D08B09C0F401818192810E94C912F40119
:102720006786708A3401C301DF91CF911F910F91A9
:10273000FF90EF90DF90CF90BF90AF909F908F90E1
:102740007F906F905F904F903F902F900895EF9201
:10275000FF920F931F93CF93DF937C01FC01EC0159
:102760008881861729F0FE010F84D889C02DF8CF03
:102770000F851889CE15DF0569F40115110519F4C7
:102780000E94911205C0F801818192810E94C912B4
:10279000780102C00787108BCE010E94A43BC701BD
:1027A000DF91CF911F910F91FF90EF90089599279E
:1027B0008230910571F1833091052CF4009751F02E
:1027C0000197A9F064C08330910509F45BC00497B8
:1027D000F1F15DC00E9428020E94630282E08093B2
:1027E000CC0681E00E94A52084EA91E02DC00E94E1
:1027F00028020E9463020E949E0280E18093E20709
:1028000084E08093CC0686E00E9412101092BD07EF
:10281000089585E08093CC068091E2078093C807F5
:1028200081E18093E20783E00E9412100E9475020A
:102830000E943A028091BD07882321F489E298E141
:102840000E94760488EB91E00E941B3C08958FEC77
:1028500091E00E941B3C8091B207882319F4809379
:10286000E20708958091A4088F5F8093A4088A30BE
:1028700019F41092A408089561E0809136070E942F
:10288000D117089581E191E30E947604089589EDBE
:1028900091E00E949604089508958091CD0690914C
:1028A000CE06089586B597B50895EF92FF920F93DF
:1028B0001F930E94650426B537B579012091CD0696
:1028C0003091CE0689010E946304C801B7011F91AF
:1028D0000F91FF90EF90089587B78F7787BF089586
:1028E0001F93CF93182FC62F683088F4C8600E94BA
:1028F000650497B79F7797BF97B79F7B97BFC5BD75
:1029000014BC13BD97B7906897BF0E94630480E022
:1029100090E0CF911F9108950E9465041092C9061E
:1029200097B79F7797BF0E94630480E090E0089577
:10293000E091C006F091C106099508958091C906FD
:1029400099270895EF92FF921F93182F7B010E9401
:102950006504F092C106E092C00691E09093C9062A
:102960000E94630464E0812F0E9470141F91FF9005
:10297000EF9008950E94650490917D009F7E909352
:102980007D0090917C00906190937C000E94630494
:1029900008950E94211608951F93CF93DF93EC01B1
:1029A000162F683028F080EF91E00E94960424C032
:1029B0000E94650490917C00906190937C00D0937C
:1029C0008700C093860010928500109284001092B8
:1029D0008300109282001092890010928800109259
:1029E0008B0010938A0010928C0090917D00906172
:1029F00090937D000E94630480E090E0DF91CF918E
:102A00001F910895AA27BB27880F991FAA1FBB1FD4
:102A1000803020E0920721E0A20720E0B20710F406
:102A200065E002C065E001960E94CC140895089507
:102A3000209188003091890044275527AA27BB2779
:102A4000880F991FAA1FBB1F280F391F4A1F5B1F22
:102A5000CA01B90108950F931F938C010E94650468
:102A600010938700009386000E94630481E090E049
:102A70001F910F9108950E941E1608950895AF9218
:102A8000BF92DF92EF92FF920F931F93CF93DF934A
:102A90005C01F62ED42EE22E8BE090E00E94F53AF7
:102AA000EC0119861A86EA82F882D982A114B1044F
:102AB000D1F4C8010E94021522273327000F111FED
:102AC000221F331FC801003040E0140741E02407F3
:102AD00040E0340708F001968B839C830D831E83AE
:102AE0002F83388745C0C8010E9418158B019C01AF
:102AF000CB010030E0E01E07E1E02E07E0E03E07FA
:102B000008F001968B839C830D831E832F83388767
:102B1000B5017501F50185819681A781B085801782
:102B20009107A207B307A8F4B701F701E184F28483
:102B3000E114F10471F02D813E814F815885F70138
:102B400085819681A781B08582179307A407B50771
:102B500058F3EA14FB0431F0FB01C187D287E98600
:102B6000FA8607C08B819C810E942B15A986BA86A4
:102B70005E01C501DF91CF911F910F91FF90EF9002
:102B8000DF90BF90AF900895EF92FF920F931F9345
:102B9000CF93DF937C01DC01EC01413071F004C084
:102BA000DE010984DA85C02D8981861719F48A81AE
:102BB000841799F02097A1F712C0FC018281841735
:102BC00061F0E114F10449F0DE010984DA85C02DD9
:102BD0008A81813011F02097B9F7209779F4842FFA
:102BE00099279F938F9388E092E09F938F930E9401
:102BF000063C0F900F900F900F9018C009851A8512
:102C0000CE15DF0569F40115110519F40E94BA14F7
:102C100005C0F801838194810E942B15780103C0BF
:102C2000FD0101871287CE010E94A43BC701DF91FD
:102C3000CF911F910F91FF90EF9008950E94351C46
:102C400008950E948D1A82E593E20E947604089509
:102C500010927B0910927A091092E2071092CC062A
:102C60001092BA071092B9071092B4071092B307E6
:102C70001092AF081092B0081092E5071092E40786
:102C80001092C7071092C60710926D0810926C0838
:102C90001092B6071092B5071092B8071092DB0792
:102CA0008FEF9FEF9093BC078093BB0710926E0845
:102CB00010926F08109270081092710810927208AA
:102CC0001092730810927408109275088EEF9FEF9F
:102CD0009093C4088093C3081092A5071092170719
:102CE000109216071092990810929A0810929B0859
:102CF00010929C0810929D0810929E0810929F08B6
:102D00001092A00810928209E3E8F9E08FE0119296
:102D1000815087FFFCCF1092A4080895FF920F9373
:102D20001F93CF93DF93CDB7DEB760970FB6F894BC
:102D3000DEBF0FBECDBF86E3809377081092780880
:102D400088E089871A861B861C861D861E868FEF63
:102D50008F87888BFE01319697E080858193915013
:102D600097FFFBCFCE0101960E94CD0E89E998E036
:102D70000E94C60E09E918E097E0F92EF80181914A
:102D80008F0199279F938F9381E592E09F938F9373
:102D90000E94063C0F900F900F900F90FA94F7FE50
:102DA000EDCF88E0F82E1092B207109279081092B9
:102DB0007A0886E080937B0810927D0810927C0848
:102DC00010927E0880937F081092800810928108EC
:102DD0001092820810928308AEE6B8E0E5E8F8E0C9
:102DE0008F2D0D9001928A95E1F72091BB073091CC
:102DF000BC0730938E0820938D081092900882E0D3
:102E00008093910883E0809392081092950881E066
:102E10008093960885E08093A10885E090E09093E8
:102E2000A3088093A20830939408209393083093CA
:102E30009808209397088F2D0E941210882319F468
:102E400080E090E002C083EE90E060960FB6F894C8
:102E5000DEBF0FBECDBFDF91CF911F910F91FF90CD
:102E600008950895CF93DF93CDB7DEB78D81882382
:102E700009F043C08E81833021F480E18093E20722
:102E80003EC08130D1F58AE08093E2078A8D982F89
:102E90009F7090937F0882958F708093A108888D92
:102EA000998D90939408809393088D85823039F49E
:102EB0008E899F8990938E0880938D081AC08330E5
:102EC000C1F42E853F85488959896A897B898C8917
:102ED0009D892093850830938608409387085093F6
:102EE00088086093890870938A0880938B08909370
:102EF0008C088C858093360702C01092E207DF9120
:102F0000CF9108950895CF93DF93EC01693E19F4B2
:102F100086E692E004C06B3E29F48AE992E00E94C2
:102F20001B3C18C06623B1F484E08093E2076093F1
:102F3000CC0686E00E941210D0939808C0939708A0
:102F4000CE010E944A0E80919308909194080E94AD
:102F5000760E03C08AE08093E207DF91CF91089557
:102F6000CF93DF93CDB7DEB728970FB6F894DEBFC7
:102F70000FBECDBF80E18093E20728960FB6F8948C
:102F8000DEBF0FBECDBFDF91CF910895882321F41E
:102F900080ED92E00E941B3C0895089508950895E5
:102FA00008951F93182F8EE08093E20786E00E9419
:102FB0001210612F80E00E94DA108091B2078823FE
:102FC00061F48091BB079091BC070E944A0E8091EA
:102FD0009308909194080E94760E64E06093CC066A
:102FE00081E08093DB0780EA90E0A0E0B0E09C0104
:102FF000AD0100907F0804C0220F331F441F551FEE
:103000000A94D2F72093C2073093C3074093C407B2
:103010005093C5070090A10804C0880F991FAA1FEC
:10302000BB1F0A94D2F78093CD079093CE07A0934D
:10303000CF07B093D00780911607909117070E9491
:10304000E61290931707809316071092BD071F9101
:10305000089561E0809136070E94D11708956F921C
:103060007F928F929F92AF92BF92CF92DF92EF9218
:10307000FF920F931F930E945A123B014C018091C3
:10308000C9079091CA07A091CB07B091CC07640102
:103090005301A81AB90ACA0ADB0A681679068A0611
:1030A0009B0640F48FEF9FEFAFEFBFE3A80EB91E72
:1030B000CA1EDB1E8601750116950795F794E794E5
:1030C0008091CD079091CE07A091CF07B091D00706
:1030D0008E199F09A00BB10B9C01AD0162E080919C
:1030E0001607909117070E94E612FC0190931707AC
:1030F000809316078091C2079091C307A091C407DF
:10310000B091C5078E199F09A00BB10B9C01AD01B1
:1031100061E0CF010E94E612909317078093160793
:103120008091C9079091CA07A091CB07B091CC07B5
:103130008093DC079093DD07A093DE07B093DF0751
:103140008091CD079091CE07A091CF07B091D00785
:10315000880F991FAA1FBB1F8A199B09AC09BD09BB
:10316000860D971DA81DB91D8093D7079093D8078A
:10317000A093D907B093DA078091C2079091C30753
:10318000A091C407B091C507880F991FAA1FBB1F44
:103190008A199B09AC09BD09860D971DA81DB91D8B
:1031A00080933A0790933B07A0933C07B0933D0769
:1031B0001F910F91FF90EF90DF90CF90BF90AF9055
:1031C0009F908F907F906F90089580E093E00E9491
:1031D0001B3C82E18093E2070895CF93DF93CDB744
:1031E000DEB78AE293E00E941B3CDF91CF91089505
:1031F000982FE091B907F091BA078381891721F0E0
:103200000184F285E02DF9CFCF010895CF92DF92AE
:10321000EF92FF920F931F93CF93DF93CDB7DEB75B
:103220002D970FB6F894DEBF0FBECDBFC982DA82EC
:10323000EB82FC820D831E832F83388749875A8750
:103240006B877C878D8700916C0810916D084C8589
:103250005D852A853B85ED2CFB80BC81AD81DE80C0
:10326000CF807885698503C0F80100A911A90115EF
:10327000110519F1F801868D978D84179507A1F72F
:10328000848D958D82179307C1F084898E1561F71F
:1032900085898F1549F786898B1731F787898A17B2
:1032A00019F7808D8D1501F7818D8C15E9F6828DCA
:1032B0008717D1F6838D8617B9F60115110521F40C
:1032C00088E593E00E949604C8012D960FB6F89405
:1032D000DEBF0FBECDBFDF91CF911F910F91FF9049
:1032E000EF90DF90CF900895CF92DF92EF92FF9210
:1032F0000F931F93CF93DF93CDB7DEB72D970FB604
:10330000F894DEBF0FBECDBFC982DA82EB82FC82A9
:103310000D831E832F83388749875A876B877C8765
:103320008D87E0916C08F0916D08309771F10D2D4B
:103330001E2DBF2DAD817E81622F532F2A853B85A7
:1033400084898017A9F48589811791F486898B1760
:1033500079F487898A1761F4808D871749F4818D04
:10336000861731F4828D851719F4838D841729F01F
:10337000848D958D8217930719F481E090E007C042
:1033800000A8F1A9E02D3097D9F680E090E02D96C5
:103390000FB6F894DEBF0FBECDBFDF91CF911F9166
:1033A0000F91FF90EF90DF90CF90089508956F9266
:1033B0007F928F929F92AF92BF92CF92DF92EF92C5
:1033C000FF920F931F930E945A123B014C01809170
:1033D000D3079091D407A091D507B091D607640187
:1033E0005301A81AB90ACA0ADB0A681679068A06BE
:1033F0009B0640F48FEF9FEFAFEFBFE3A80EB91E1F
:10340000CA1EDB1E8601750116950795F794E79491
:103410008091CD079091CE07A091CF07B091D007B2
:103420008E199F09A00BB10B9C01AD0162E0809148
:103430001607909117070E94E612FC019093170758
:10344000809316078091C2079091C307A091C4078B
:10345000B091C5078E199F09A00BB10B9C01AD015E
:1034600060E0CF010E94E612909317078093160741
:103470008091D3079091D407A091D507B091D6073A
:103480008093DC079093DD07A093DE07B093DF07FE
:103490008091CD079091CE07A091CF07B091D00732
:1034A000880F991FAA1FBB1F8A199B09AC09BD0968
:1034B000860D971DA81DB91D8093D7079093D80737
:1034C000A093D907B093DA078091C2079091C30700
:1034D000A091C407B091C507880F991FAA1FBB1FF1
:1034E0008A199B09AC09BD09860D971DA81DB91D38
:1034F00080933A0790933B07A0933C07B0933D0716
:103500001F910F91FF90EF90DF90CF90BF90AF9001
:103510009F908F907F906F900895E0917A09F0913D
:103520007B09F093C208E093C108118612861092BD
:103530007B0910927A090895CF93DF93EC014091B3
:103540006C0850916D089A01DA0107C041155105C8
:1035500039F0DA01FA0140A951A94C175D07B1F71A
:103560004115510529F483E893E00E94960413C1A4
:103570008091B5079091B6072817390749F4109242
:103580006D0810926C081092B6071092B5071FC014
:10359000FA0180A991A94217530729F490936D0865
:1035A00080936C0814C0FD0180AB91ABFA0180A937
:1035B00091A9009729F09093B6078093B50704C0AE
:1035C000B093B607A093B507FA0110AA11AA8B8988
:1035D000823009F048C070E04C8D5D8D8091050A05
:1035E0009091060A4817590781F02091030A7F5FDE
:1035F000E72FFF27EE0FFF1FE050F64F85819681E2
:103600004817590711F0271790F7272F3327F9018B
:10361000E20FF31FE050F64F858196814817590756
:10362000E9F46091030A462F552741505040421754
:1036300053076CF0F901E20FF31FE050F64F87815A
:103640009085858396837F5F272F3327F0CF615046
:103650006093030A8091020A815093C08BEA93E041
:103660000E94960490C0833009F08DC070E04C89B0
:103670005091040A01C07F5F272F3327F90183E0AF
:10368000EE0FFF1F8A95E1F7E050F64FDF01199624
:1036900081854817E9F49D89FD0181819817C1F45E
:1036A0009E8982819817A1F49F898381981781F45C
:1036B000988D8481981761F4998D8581981741F4CC
:1036C0009A8D8681981721F49B8D8781981711F028
:1036D000571788F6F901B3E0EE0FFF1FBA95E1F72F
:1036E000E050F64FDF0119968185481709F04BC06D
:1036F0009D89FD018181981709F045C09E898281CD
:10370000981709F040C09F8983819817E1F5988D3B
:1037100084819817C1F5998D85819817A1F59A8DA7
:103720008681981781F59B8D8781981761F5809127
:10373000040A9927019782179307DCF048E0F90102
:10374000A3E0EE0FFF1FAA95E1F7DF01AF5EB54FD3
:10375000E75FF54F842F0D9001928A95E1F77F5F27
:10376000272F33278091040A9927019782179307FF
:1037700034F78091040A81508093040A8091020AF0
:1037800080518093020ACE010E94A43B8091B80729
:1037900081508093B807DF91CF910895CF93DF9345
:1037A000C0916C08D0916D082097C9F089819A81E9
:1037B000019789839A83892B69F48C819927877073
:1037C0009070019721F46B8180EF0E94E518CE0183
:1037D0000E949C1A08A8D9A9C02D209739F7DF911B
:1037E000CF9108950F931F938C01FC0181819281E9
:1037F0000E94A43BC8010E94A43B1F910F91089511
:10380000CF93DF93982FC091B907D091BA07FE01EB
:1038100006C0209739F0FE010984DA85C02D8B811E
:103820008917B9F7209729F48CEC93E00E9496044D
:1038300019C089859A85EC17FD0749F49093BA075A
:103840008093B9079093B4078093B30704C081872E
:10385000928719861A868F8198850E94A43BCE0193
:103860000E94A43BDF91CF910895E0917A09F091F5
:103870007B090184F285E02D309719F083819481D2
:103880000895CF01089508950895AF92BF92CF9201
:10389000DF92EF92FF920F931F93CF93DF93CDB7F9
:1038A000DEB723970FB6F894DEBF0FBECDBFE82E6C
:1038B00049835A836B83FAA40BA51CA5ADA4BEA4AF
:1038C000CFA8D8AC82E390E00E94F53AAC014C5FFF
:1038D0005F4F83E09E012F5F3F4FDA01F9010190B6
:1038E0000D928A95E1F744505040FA01E382F5A623
:1038F00006A717A78091A2089091A30881839283BD
:10390000B78284819927877090700197E9F0BA0196
:10391000655F7F4F9E01215D3F4FBB2061F0A28616
:1039200088E0DB01F90101900D928A95E1F7FA0137
:10393000C086D18609C0FA01A28688E0DB01F901C0
:1039400001900D928A95E1F78DE04D5E5F4FDA01AF
:10395000E0E1F0E0EC0FFD1F982F01900D929A9599
:10396000E1F7435F5F4FFE017D96DA0101900D9212
:103970008A95E1F74052504081E0FA01808310AA15
:1039800011AAE091B507F091B607309729F450934A
:103990006D0840936C0802C040AB51AB5093B60722
:1039A0004093B5078889823099F42091030AE22F69
:1039B000FF27EE0FFF1FE050F64F898D9A8D85830C
:1039C00096832F5F2093030A8091020A8F5F18C0AD
:1039D0008091040AE82FFF2793E0EE0FFF1F9A95CE
:1039E000E1F7E75FF54F98E0DE0151960D90019207
:1039F0009A95E1F78F5F8093040A8091020A805FB5
:103A00008093020A8091B8078F5F8093B80723964E
:103A10000FB6F894DEBF0FBECDBFDF91CF911F91DF
:103A20000F91FF90EF90DF90CF90BF90AF900895EF
:103A3000CF93DF93CDB7DEB7A5970FB6F894DEBF6F
:103A40000FBECDBF29833A834B835C836D837E8316
:103A50008F83988783E08C87898F809193089091DA
:103A600094088F8B988F8CA39DA388E0A9E9B8E078
:103A7000FE017A96982F0D9001929A95E1F7DE015A
:103A80001196FE013D960D9001928A95E1F7A5965B
:103A90000FB6F894DEBF0FBECDBFDF91CF91089572
:103AA000CF92EF92FF920F931F93CF93DF93CDB7F7
:103AB000DEB72B970FB6F894DEBF0FBECDBFE982FD
:103AC000FA820B831C832D833E834F83588769873B
:103AD0007A878B872E2D3F2D402F512F6D817E8130
:103AE0008F8198850E94BC328C019F938F9384E0D4
:103AF00094E09F938F930E94063C80E0C82EE82EAE
:103B000029813A814B815C816D817E818F8198858D
:103B10000E94181D0F900F900F900F902B960FB6CC
:103B2000F894DEBF0FBECDBFDF91CF911F910F91F3
:103B3000FF90EF90CF900895AF92BF92CF92DF9217
:103B4000EF92FF920F931F93CF93DF93B82E6B01E9
:103B5000A42E780189018AE090E00E94F53AEC01F8
:103B6000009729F489E294E00E9496041BC0B88271
:103B7000C982DA82AB82EC82FD820E831F831886B3
:103B80001986E091C607F091C707309729F4909302
:103B9000E5078093E40702C080879187D093C70729
:103BA000C093C607CE01DF91CF911F910F91FF9077
:103BB000EF90DF90CF90BF90AF9008950F931F9339
:103BC000942FA901980189019A01492F0E949C1DF7
:103BD0009093E5078093E4078FE79DE20E947604C7
:103BE0001F910F910895BF92CF92DF92EF92FF92B3
:103BF0000F931F93CF93DF93F82E6B01142FB22EE8
:103C00008BE090E00E94F53AEC01892B29F489E2DF
:103C100094E00E9496041DC0CF82D886198382E06A
:103C20008C83FD820B8319861A86B8821A82EE82F3
:103C3000E091B307F091B407309729F4D093BA0715
:103C4000C093B90702C0C187D287D093B407C0938D
:103C5000B307CE01DF91CF911F910F91FF90EF90AD
:103C6000DF90CF90BF900895CF92DF92EF92FF92B6
:103C70000F931F936B010E94B70F7B018C01C6014C
:103C80000E94A43BC801B7011F910F91FF90EF90D4
:103C9000DF90CF900895CF92DF92EF92FF920F9333
:103CA0001F93CF93DF9386E690E00E94F53AEC01F4
:103CB0008091E90888839091EA089983D090E1087F
:103CC000DA8213E0F82EF694F694F694F694F694CD
:103CD00081E0F82200E0C0906C0AE92FFF27EC7029
:103CE000F070E830F10559F1E930F1051CF4349732
:103CF000A1F137C0EC30F105A1F58091D0088B839C
:103D00008091D1088C838091C6088D838091C708EB
:103D10008E838091C8088F838091C908888780919D
:103D2000CA0889878091CB088A878091CC088B87C5
:103D3000EC0FFD1F8091CD0880831DE012C08091A3
:103D4000D0088B838091D1088C838091CE088D839D
:103D50008091CF088E8317E004C084E494E00E9431
:103D600096048091EA089927807C907080389105AC
:103D700009F451C0813891052CF48034910509F47F
:103D800067C06AC0803C910509F066C0FE01E10F82
:103D9000F11D8091DD0880831F5FFE01E10FF11DA1
:103DA0008091DE0880831F5FFE01E10FF11D80918D
:103DB000D30880831F5FFE01E10FF11D8091D408BD
:103DC00080831F5FFE01E10FF11D8091D508808384
:103DD0001F5FFE01E10FF11D8091D60880831F5FF8
:103DE000FE01E10FF11D8091D70880831F5FFE0166
:103DF000E10FF11D8091D80880831F5FFE01E10F64
:103E0000F11D8091D90880831F5FFE01E10FF11D34
:103E10008091DA081AC0FE01E10FF11D8091DD08E2
:103E200080831F5FFE01E10FF11D8091DE0880831A
:103E30001F5FFE01E10FF11D8091DB0880831F5F92
:103E4000FE01E10FF11D8091DC0880831F5F04C03B
:103E500089E694E00E9496048091DF0899278130DA
:103E6000910509F4B5C0823091051CF4892B29F025
:103E70002EC1039709F4C2C02AC1FE01E10FF11D52
:103E80008091550980831F5FFE01E10FF11D809134
:103E9000560980831F5FFE01E10FF11D10821F5F35
:103EA000FE01E10FF11D8091570980831F5F809112
:103EB00058098823A9F0982FAAE5B9E0FE01E10F7F
:103EC000F11D8C9180831F5F9E01210F311DFD012B
:103ED0008181F90180831F5F91501296992371F7B8
:103EE00080915909882309F446C0AEE5B9E0982FBE
:103EF000FE01E10FF11D8C9180831F5F9E01210F58
:103F0000311DFD018181F90180831F5F9E01210F19
:103F1000311DFD018281F90180831F5F9E01210F08
:103F2000311DFD018381F90180831F5F9E01210FF7
:103F3000311DFD018481F90180831F5F9E01210FE6
:103F4000311DFD018581F90180831F5F9E01210FD5
:103F5000311DFD018681F90180831F5F9E01210FC4
:103F6000311DFD018781F90180831F5F91501896F3
:103F7000992309F0BDCFFE01E10FF11D8091ED08FD
:103F800080831F5F882359F0AEEEB8E0982FFE01C2
:103F9000E10FF11D8D9180831F5F9150C1F7BE012C
:103FA000812F0E94341EDC01CB018093D3079093B4
:103FB000D407A093D507B093D6071092CC0680E122
:103FC0008093E20786E00E94121087ED99E1B2C06B
:103FD000FE01E10FF11D8091EC0880831F5F8823B3
:103FE00009F475C0AEEEB8E0982FFE01E10FF11DA7
:103FF0008D9180831F5F9150C1F769C0FE01E10F71
:10400000F11D8091E00880831F5F082F992782307F
:10401000910591F0833091051CF4019739F057C058
:1040200083309105E9F0089709F151C0FE01E10FD5
:10403000F11D8091540949C0FE01E10FF11D8091ED
:104040006E0980831F5FFE01E10FF11D80916F09F2
:1040500080831F5FFE01E10FF11D8091700935C063
:10406000FE01E10FF11D809171092FC0FE01E10FEA
:10407000F11D8091720980831F5FFE01E10FF11D28
:104080008091730980831F5FFE01E10FF11D809114
:10409000740980831F5FFE01E10FF11D8091750996
:1040A00080831F5FFE01E10FF11D809176098083FF
:1040B0001F5FFE01E10FF11D8091770980831F5F73
:1040C000FE01E10FF11D8091780980831F5FE02ED2
:1040D0000D2D2F2D4C2DBE01812F0E94F31D8C0123
:1040E0009093BA078093B9078091AF08282F3327A0
:1040F0008091B008E82FFF27EF012196CE0165E0FF
:1041000070E00E94F33D2817390729F48EE894E007
:104110000E94960411C0EE0FFF1FEB55F74F00836E
:104120001183CE0165E070E00E94F33D8093B008FA
:1041300087EB91E30E947604DF91CF911F910F915D
:10414000FF90EF90DF90CF900895CF93DF93109280
:10415000DF0890918408292F9F5F90938408209313
:10416000E1081092C508209193083091940830938B
:10417000DE082093DD08882361F082E08093D20876
:1041800080919708909198089093DC088093DB08C1
:104190000CC083E08093D20888E0A9E9B8E0E3EDA1
:1041A000F8E00D9001928A95E1F78091000A9091D4
:1041B000010A90935609809355098091020A8093D1
:1041C00057098091030A80935809882359F0282FB2
:1041D000AAE5B9E0E5E0FAE0819191918D939D9394
:1041E0002150D1F78091040A80935909882391F0D6
:1041F00098E0AEE5B9E049E05AE0282FED01FA0178
:10420000892F019009928A95E1F7485F5F4F1896D0
:104210002150A1F78091190A8093ED08882349F075
:10422000AEEEB8E0EAE1FAE0282F81918D932150BB
:10423000E1F71092E9088091D2088295880F880FE3
:10424000807C8093EA088EEC9BE10E9476040E94B9
:104250004B1EDF91CF910895CF92DF92EF92FF92A4
:104260000F931F93CF93DF93CDB7DEB728970FB689
:10427000F894DEBF0FBECDBFE982FA820B831C83A8
:104280002D833E834F83588782E08093E00893E03C
:104290009093DF0880918F08282F8F5F80938F087D
:1042A0002093E1089093D2089093C50880919308D9
:1042B000909194089093DE088093DD089093D10844
:1042C0008093D00803ED18E088E029E938E0D801B0
:1042D000F901982F01900D929A95E1F7F8013D9719
:1042E000DE0111960D9001928A95E1F7D0926F0947
:1042F000C0926E096093700983E28093E9088CECA8
:104300008093EA080E944B1E28960FB6F894DEBFF1
:104310000FBECDBFDF91CF911F910F91FF90EF9016
:10432000DF90CF9008958F929F92AF92BF92CF92DD
:10433000DF92EF92FF920F931F93CF93DF93CDB74E
:10434000DEB72D970FB6F894DEBF0FBECDBFA982A2
:10435000BA82CB82DC82ED82FE820F8318872987A6
:104360003A874B875C876D8778E07093E00863E05D
:104370006093DF0890918F08292F9F5F90938F089B
:104380002093E1086093D20803ED18E029E938E0B2
:10439000D801F901972F01900D929A95E1F740917C
:1043A0009308509194085093DE084093DD082091C3
:1043B000BB073091BC073093D1082093D0088823E5
:1043C00099F06093C508F8013D97DE0112960D90B3
:1043D00001927A95E1F7909278098092770983E2C9
:1043E0008093E9088CEC0EC082E08093C50830937E
:1043F000CF082093CE0830937809209377096093F3
:10440000E90888EC8093EA08509373094093720995
:1044100080919708909198089093750980937409FA
:1044200080913607809376090E944B1E2D960FB619
:10443000F894DEBF0FBECDBFDF91CF911F910F91DA
:10444000FF90EF90DF90CF90BF90AF909F908F90B4
:104450000895CF93DF93CDB7DEB72D970FB6F894BD
:10446000DEBF0FBECDBF803E11F41092E2072D9645
:104470000FB6F894DEBF0FBECDBFDF91CF91089588
:10448000CF93DF93CDB7DEB765970FB6F894DEBF55
:104490000FBECDBF65960FB6F894DEBF0FBECDBF81
:1044A000DF91CF910895CF93DF93CDB7DEB72897F3
:1044B0000FB6F894DEBF0FBECDBF29833A834B837E
:1044C0005C836D837E838F83988782EA94E00E9469
:1044D0001B3C29813A814B815C816D817E818F817A
:1044E00098850E94BC3228960FB6F894DEBF0FBEA6
:1044F000CDBFDF91CF9108958F929F92AF92BF92DF
:10450000CF92DF92EF92FF920F931F93CF93DF939F
:10451000CDB7DEB7DC01522F1092190A1092040AAF
:104520001092030AE22FFF279F0174E0220F331F2E
:104530007A95E1F7942F922B9093000A002311F0C3
:104540008FEC01C08FE88093010AB0939408A09388
:10455000930840937F085093A1086093360780EA40
:1045600090E0A0E0B0E07C018D0104C0EE0CFF1CE7
:10457000001F111F4A95D2F7E092C207F092C307BD
:104580000093C4071093C50704C0880F991FAA1F82
:10459000BB1FEA95D2F78093CD079093CE07A093E7
:1045A000CF07B093D00780E00E94DA10CC2021F42E
:1045B00081E00E94A52021C08090BB079090BC079D
:1045C000A090A507B090A607C090A707D090A80715
:1045D000E090A907F090AA070091AB071091AC07F3
:1045E0002091AD073091AE074091AF075091B007D1
:1045F0006091B10780E00E949321DF91CF911F91DC
:104600000F91FF90EF90DF90CF90BF90AF909F9071
:104610008F9008950F931F9386E08093E00833E016
:104620003093DF0880918F08982F8F5F80938F08D9
:104630009093E1083093D20882E08093C50880917E
:10464000BB079091BC079093DE088093DD0828E0BB
:10465000A9E9B8E0E3EDF8E00D9001922A95E1F7C1
:104660009093D1088093D0089093CF088093CE0880
:104670003093E90888EC8093EA080E944B1E00E41E
:1046800016E021E04091E108622F80917A09909133
:104690007B090E943F1590937B0980937A091F91B3
:1046A0000F910895EF92FF920F931F93CF93DF9393
:1046B000E091C108F091C20882819927823091056A
:1046C00009F4F6C08330910534F4009761F0019746
:1046D00009F476C021C18330910509F47FC00497A5
:1046E00009F413C119C11092CC0681810E94F818F7
:1046F000EC01892B09F410C18C81882389F180EDAC
:1047000094E00E941B3C8091AF08282F33278091B2
:10471000B008E82FFF278F010F5F1F4FC80165E02A
:1047200070E00E94F33D2817390729F48EE894E0E1
:104730000E94960411C0EE0FFF1FEB55F74FC08388
:10474000D183C80165E070E00E94F33D8093B0081A
:1047500087EB91E30E9476048C8181508C83DCC0CE
:104760008E8199278130910599F0823091051CF452
:10477000892BD1F021C083309105D9F00497E1F461
:104780008091B2078823C1F48AE08093E20714C0C5
:104790008091E207833081F469EE8091BB079091AC
:1047A000BC070E94831708C0698189EE0E94E51842
:1047B00003C089EE0E94C6178B810E94001CACC00A
:1047C0008091E207833009F473C0813109F470C02D
:1047D000883009F0A1C00E940A239EC08091E207A0
:1047E000873009F099C0C091BE07D091BF07E09112
:1047F000C007F091C107CE01DF0100906B0804C033
:10480000B695A795979587950A94D2F721E030E061
:1048100040E050E082279327A427B527817090704D
:10482000892BA1F080916B088F5F80936B0880319A
:1048300008F046C07E018F0104C016950795F794D5
:10484000E7948A95D2F7D801C701E4CF80916B082D
:10485000982F8F5F80936B08692F80E00E94DA1099
:1048600086E00E94121084E08093CC060091E0075D
:104870001091E10723E040E061E080917A09909196
:104880007B090E943F1590937B0980937A09809160
:104890006B08992701979F938F9382EE94E09F93E3
:1048A0008F930E94063C0F900F900F900F9034C092
:1048B0006BEE8091BB079091BC070E9483172CC0C0
:1048C00085E08093CC0688E00E9412100DB71EB7D9
:1048D000045810400FB6F8941EBF0FBE0DBFADB701
:1048E000BEB7119684E8ECE7F9E001900D928A9545
:1048F000E1F70E9432178DB79EB78C579F4F0FB6C6
:10490000F8949EBF0FBE8DBF0DC08091DB0788233A
:1049100019F080EE0E9429228091C1089091C2086E
:104920000E94A43BDF91CF911F910F91FF90EF90D8
:1049300008954F925F926F927F928F929F92AF9263
:10494000BF92CF92DF92EF92FF920F931F93CF937C
:10495000DF934A015B01C0EAD0E002C0CC0FDD1F4B
:104960002A95E2F7C056DF4F10928209282F33278D
:104970002130310509F472C02230310524F42115AB
:10498000310531F0DBC02330310509F4D2C0D6C087
:1049900085E08093E2078093CC067090820929011C
:1049A00081E090E0042C02C0880F991F0A94E2F77E
:1049B000AA2797FDA095BA2F88219921AA21BB216A
:1049C0000097A105B105A1F10E945A126B017C016B
:1049D000CE01AA27BB27880F991FAA1FBB1FC80E8D
:1049E000D91EEA1EFB1EE0E86E2E672D80E00E94B5
:1049F000DA108C0186E00E9412100730C9F405C05D
:104A00000E94F40F96150CF0692E0E945A12DC01D8
:104A1000CB018C159D05AE05BF0591F780918209EC
:104A2000E82FFF27E458F64F67828F5F8093820953
:104A300080918209803140F473940894411C511C88
:104A40008FE0871508F0ACCF86E08093E20785E021
:104A50008093CC0688E00E94121070C010926B0800
:104A60004093BE075093BF076093C0077093C10780
:104A7000D093E107C093E0070E94B80E8091BB0776
:104A80009091BC070E944A0E8091BB079091BC0791
:104A90000E94760E87E08093E207D501C401009062
:104AA0006B0804C0B695A795979587950A94D2F799
:104AB00021E030E040E050E082279327A427B5278B
:104AC00081709070892B99F080916B088F5F809333
:104AD0006B08803199F1F501E40104C0F695E79582
:104AE000D795C7958A95D2F7CE01DF01E5CF8091A2
:104AF0006B08982F8F5F80936B08692F80E00E946E
:104B0000DA100091E0071091E10723E040E061E056
:104B100080917A0990917B090E943F1590937B09BF
:104B200080937A0986E00E94121084E08093CC067C
:104B300005C088E08093E2070E940A23DF91CF91AD
:104B40001F910F91FF90EF90DF90CF90BF90AF90AB
:104B50009F908F907F906F905F904F90089526E088
:104B600048E050E060E070E081E00E949924089500
:104B700085E08093E00823E02093DF0880918F0890
:104B8000982F8F5F80938F089093E1082093D2082D
:104B900082E08093C5088091930890919408909347
:104BA000DE088093DD089093D1088093D00888E0D8
:104BB000A9E9B8E0E3EDF8E00D9001928A95E1F7FC
:104BC00080918D0890918E089093CF088093CE08A5
:104BD00083E28093E90888EC8093EA080E944B1EE8
:104BE00008950F931F93CF93DF93CDB7DEB7289728
:104BF0000FB6F894DEBF0FBECDBF09831A832B8397
:104C00003C834D835E836F83788723E02093E008A5
:104C10002093DF0890918F08392F9F5F90938F0822
:104C20003093E1082093D20892E09093C508209138
:104C30009308309194083093DE082093DD08309378
:104C4000D1082093D00898E0A9E9B8E0E3EDF8E0B6
:104C50000D9001929A95E1F720918D0830918E0880
:104C60003093CF082093CE088093710983E280931C
:104C7000E90888EC8093EA080E944B1E28960FB63C
:104C8000F894DEBF0FBECDBFDF91CF911F910F9182
:104C90000895FF920F931F93CF93DF93CDB7DEB7A5
:104CA000A5970FB6F894DEBF0FBECDBF29833A8318
:104CB0004B835C836D837E838F839887F02E83E0A4
:104CC0008C87898F80919308909194088F8B988F0F
:104CD0008CA39DA329E938E098E0FE017A96D901DA
:104CE000892F0D9001928A95E1F783E2898788ECFC
:104CF0008A878091E2078031D9F4F9017497DE0147
:104D00001D9601900D929A95E1F7009185081091FA
:104D10008608209187083091880840918908509131
:104D20008A0860918B0870918C088F2D0E94F12564
:104D3000A5960FB6F894DEBF0FBECDBFDF91CF9121
:104D40001F910F91FF9008958F92AF92BF92CF92D3
:104D5000DF92EF92FF920F931F93CF93DF93CDB724
:104D6000DEB72D970FB6F894DEBF0FBECDBFA98278
:104D7000BA82CB82DC82ED82FE820F83188729877C
:104D80003A874B875C876D8781E08093E00823E05A
:104D90002093DF0880918F08982F8F5F80938F0872
:104DA0009093E1082093D20865EC78E08DE0AE01A5
:104DB0004F5F5F4FDB01FA0101900D928A95E1F799
:104DC0008091BB079091BC079093DE088093DD082B
:104DD000FB013E9688E0A9E9B8E00D9001928A9522
:104DE000E1F78092540983E28093E9088091C50835
:104DF000282F3327220F331F220F331F8091D20811
:104E00009927A6E0880F991FAA95E1F7822B809336
:104E1000EA080E944B1E2D960FB6F894DEBF0FBE17
:104E2000CDBFDF91CF911F910F91FF90EF90DF9059
:104E3000CF90BF90AF908F9008956F927F928F9296
:104E4000AF92BF92CF92DF92EF92FF920F931F9398
:104E5000CF93DF93CDB7DEB765970FB6F894DEBF7B
:104E60000FBECDBF782F3A01C982DA82EB82FC8275
:104E70000D831E832F8338878A2C69874C8B5D8B2B
:104E8000633051F488E0DE011196FE013A960D90F0
:104E900001928A95E1F706C0623021F489819A81F6
:104EA0008A8B9B8B672F80E00E94DA1082E08093D0
:104EB000E207A984BA84CB84DC84ED84FE840F8568
:104EC000188929893A894B895C896D89C3010E94B7
:104ED000A42665960FB6F894DEBF0FBECDBFDF9156
:104EE000CF911F910F91FF90EF90DF90CF90BF90E7
:104EF000AF908F907F906F9008956F927F928F9276
:104F00009F92AF92BF92CF92DF92EF92FF920F9358
:104F10001F93CF93DF93CDB7DEB72D970FB6F894DD
:104F2000DEBF0FBECDBF3C01562F89829A82AB8275
:104F3000BC82CD82DE82EF82F88609871A872B87B2
:104F40003C874D872BA51092E00881E08093DF0815
:104F500080918F08982F8F5F80938F089093E1083E
:104F60008DE065EC78E08E010F5F1F4FDB01F801EB
:104F7000982F01900D929A95E1F7FB013D96AEE1D5
:104F8000B0E0AC0FBD1F0D9001928A95E1F75093F0
:104F9000EC082093E308852F9927009751F0FB0137
:104FA000B9969C01D3018D913D01819321503040F0
:104FB000C9F7C980DA80EB80FC800D811E812F81CA
:104FC000388549855A856B857C858D850E94741945
:104FD00081E08093E9088091C508282F3327220FAC
:104FE000331F220F331F8091D208992716E0880FB4
:104FF000991F1A95E1F7822B8093EA080E944B1EB5
:105000002D960FB6F894DEBF0FBECDBFDF91CF91C6
:105010001F910F91FF90EF90DF90CF90BF90AF90D6
:105020009F908F907F906F9008956F927F928F9254
:105030009F92AF92BF92CF92DF92EF92FF920F9327
:105040001F93CF93DF93CDB7DEB72D970FB6F894AC
:10505000DEBF0FBECDBFC982DA82EB82FC820D8338
:105060001E832F83388749875A876B877C878D8774
:105070000E9406193C01C980DA80EB80FC800D811A
:105080001E812F81388549855A856B857C858D8564
:105090000E947419882309F49AC061147104A1F163
:1050A000F301668D778D4C855D85EA80FB800C81F0
:1050B0001D81BE81AF81D884C9842A853B85641750
:1050C0007507F9F4F30184898E15A9F485898F1584
:1050D00091F48689801779F48789811761F4808D2E
:1050E0008B1749F4818D8A1731F4828D8D1519F44F
:1050F000838D8C1549F0F301848D958D821793076C
:1051000019F061147104D9F6F3018481992787702D
:1051100090700197B9F583818F938DB79EB70D97E6
:105120000FB6F8949EBF0FBE8DBFEDB7FEB7319698
:10513000A0E2B0E06A0E7B1E8DE0D3010D900192DB
:105140008A95E1F7E0EEFFEF6E0E7F1EF301838894
:105150009488A588B688C788D08CE18CF28C038DA2
:10516000148D258D368D478D65A586A597A50E9442
:105170007D278DB79EB70E960FB6F8949EBF0FBED3
:105180008DBF22C0F3018781882391F0C084D18430
:10519000E384F48405851685278530894189528901
:1051A000628580918D0890918E080E942C210CC000
:1051B000F3010385148525853685478550896189E6
:1051C000728982850E94F125C3010E949C1A2D9646
:1051D0000FB6F894DEBF0FBECDBFDF91CF911F9108
:1051E0000F91FF90EF90DF90CF90BF90AF909F9086
:1051F0008F907F906F9008956F927F928F929F9281
:10520000AF92BF92CF92DF92EF92FF920F931F93D4
:10521000CF93DF93CDB7DEB760970FB6F894DEBFBC
:105220000FBECDBFC982DA82EB82FC820D831E8362
:105230002F83388749875A876B877C878D876EA530
:105240006FA478A879A98AA9282F3327C901969530
:1052500087959695879541E050E0842395238417A0
:10526000950779F17F932DB73EB72D5030400FB69B
:10527000F8943EBF0FBE2DBFEDB7FEB7E40FF51F8C
:105280008DE0A1E2B0E0AC0FBD1F0D9001928A95B8
:10529000E1F789809A80AB80BC80CD80DE80EF8092
:1052A000F88409851A852B853C854D85C3010E94AC
:1052B0007D2780E18093E2072DB73EB7225F3F4F05
:1052C0006AC09981923008F46FC021703070241741
:1052D000350711F081E001C081E28E87892F99277F
:1052E000880F991F880F991F29A12295220F220F3D
:1052F000207C28232F878091B807833008F051C085
:105300008091BB079091BC079F938F938DB79EB7F9
:1053100008970FB6F8949EBF0FBE8DBFADB7BEB74E
:10532000119688E0EEE6F8E001900D928A95E1F79B
:105330001F921F927F926F926F93ADB7BEB71D976A
:105340000FB6F894BEBF0FBEADBFEDB7FEB7319636
:105350008DE0A1E2B0E0AC0FBD1F282F0D900192AF
:105360002A95E1F7ADB7BEB71D970FB6F894BEBF4B
:105370000FBEADBF1196FE01319601900D928A9538
:10538000E1F74E855F856889872F0E94451C2DB700
:105390003EB7275D3F4F0FB6F8943EBF0FBE2DBFFF
:1053A00007C0672F81EF02C0672F88EE0E94E518C3
:1053B00060960FB6F894DEBF0FBECDBFDF91CF91E0
:1053C0001F910F91FF90EF90DF90CF90BF90AF9023
:1053D0009F908F907F906F90089584E08093E00875
:1053E00083E08093DF0880918F08982F8F5F8093F0
:1053F0008F089093E108209193083091940830939E
:10540000DE082093DD088091E207833019F41092C2
:10541000C5080FC082E08093C50880918D089091E7
:105420008E089093CF088093CE083093D1082093B4
:10543000D00820919708309198088091BB079091EF
:10544000BC072817390739F08091C3089091C40828
:105450002817390769F483E08093D20888E0A9E926
:10546000B8E0E3EDF8E00D9001928A95E1F707C00E
:1054700082E08093D2083093DC082093DB0883E23B
:105480008093E9088091C508282F3327220F331F06
:10549000220F331F8091D208992756E0880F991F59
:1054A0005A95E1F7822B8093EA080E944B1E0895DB
:1054B0001F93CF93DF93CDB7DEB760E08091E20713
:1054C000873009F055C081E080937D0960937C09A5
:1054D00020918209263098F143E080917A099091D9
:1054E0007B090E94C41590937B0980937A098DB73C
:1054F0009EB7845890400FB6F8949EBF0FBE8DBFE4
:10550000ADB7BEB7119684E8ECE7F9E001900D92D3
:105510008A95E1F70E9432178AE08093E2078DB7FF
:105520009EB78C579F4F0FB6F8949EBF0FBE8DBF8E
:1055300088E00E94121085E08093CC0664C0332777
:1055400089E190E0289FF001299FF00D389FF00D30
:105550001124ED57F64F89E1DE0117960D90019267
:105560008A95E1F7809182098F5F809382094BC011
:1055700089A1681778F44091970850919808282FCE
:10558000FE01B396819191918417950709F461E02A
:105590002150C1F78AA1882391F110919908B09107
:1055A0009A08A0919B0870919C0850919D08409189
:1055B0009E0830919F089091A008E6E0F0E0EC0F83
:1055C000FD1F282F81A18117B1F482A18B1799F4B7
:1055D00083A18A1781F484A1871769F485A18517AF
:1055E00051F486A1841739F487A1831721F480A58B
:1055F000891709F461E021503896222319F76623B0
:1056000011F00E94ED29DF91CF911F910895CF9263
:10561000EF920F931F93CF93DF938091680A99279E
:105620008130910509F459C18230910524F4892B08
:1056300009F45AC05DC28230910521F0039709F444
:1056400095C156C280916A0A0E94F818FC01892B04
:1056500009F44EC2868199278130910561F082302C
:1056600091051CF4892B99F13AC083309105A1F181
:10567000049769F034C08DE095E00E941B3C809156
:10568000E207823061F583E08093E20728C08AE375
:1056900095E00E941B3CE090B207EE2001F504EC7F
:1056A00014E022E04E2D61E080917A0990917B090F
:1056B0000E943F1590937B0980937A09E092CC0673
:1056C00083E08093E20786E00E94121008C06181A7
:1056D00080E00E94E51803C080E00E94C617809118
:1056E0006A0A0E94001C04C240916E0A50916F0A1F
:1056F0006091700A7091710A4093C9075093CA076C
:105700006093CB077093CC078091DB07882389F1E6
:1057100064E080911607909117070E94A713909359
:105720001707809316078FE08093E2071092DB073C
:1057300080916E0A90916F0AA091700AB091710ADF
:105740008093C9079093CA07A093CB07B093CC0767
:105750000E942F181092CC0686E00E94121081E061
:105760008093BD071092A40881E695E00E941B3C3F
:10577000BFC12091760A222349F4809179088823B9
:1057800029F08091E207873009F0B2C18091640A64
:105790009091650A90938E0880938D0880916A0A93
:1057A00080933E0720936F078091E00A809358070B
:1057B000E091E10AE09359078091E20A80935A0749
:1057C000EE2359F02E2FABE5B7E0E3EEFAE081913E
:1057D00091918D939D932150D1F720E080915A07AC
:1057E0002817B8F498E0E22FFF27A3E0EE0FFF1F81
:1057F000AA95E1F7DF01A951B54FE15AF84F392FCA
:105800000D9001923A95E1F72F5F80915A07281782
:1058100050F3E0916F07EE2349F0C0E7D7E0A7E728
:10582000BAE02E2F8D9189932150E1F78DE0ABE501
:10583000BAE0E0E4F7E00D9001928A95E1F7409339
:105840005107509352076093530770935407809108
:105850006D0A809350078091DE0A9091DF0A909341
:105860004E0780934D078091FF0A80933F078091F8
:10587000C807833011F0883011F48093E2078DB7A8
:105880009EB7865690400FB6F8949EBF0FBE8DBF50
:10589000ADB7BEB7119686E6EEE3F7E001900D9244
:1058A0008A95E1F70E94582A8091E207CDB7DEB7CA
:1058B000CA59DF4F0FB6F894DEBF0FBECDBF873099
:1058C00009F416C181E08093BD070E942F18109241
:1058D000CC0686E00E9412100BC18091E207803155
:1058E00009F006C12BE53AE08DE0A7EEB7E0FD0137
:1058F000E901982F099001929A95E1F71D96F90117
:105900003D97ED01019009928A95E1F71D978091ED
:105910006D0A809301088091750A8093040888239A
:1059200041F05E96F9017C96282F81918D9321504C
:10593000E1F7EDB7FEB7E458F0400FB6F894FEBFBC
:105940000FBEEDBF319684E8A7EEB7E00D9001924F
:105950008A95E1F70E94ED182DB73EB72C573F4FBF
:105960000FB6F8943EBF0FBE2DBFC2C08091690A2A
:1059700099278430910509F4BBC08530910534F432
:105980008230910579F0039774F5B2C086309105A5
:1059900009F4AEC0863091050CF44BC0089709F4A9
:1059A0004CC0A6C08091E207833009F0A1C085E811
:1059B00095E00E941B3C42E060E080917A09909162
:1059C0007B090E94C41590937B0980937A0980E13A
:1059D0008093E2076091F90A8091F70A9091F80AA2
:1059E0000E94831785C042E060E080917A0990911F
:1059F0007B090E94C41590937B0980937A098DE0FE
:105A00008093E207CC24EC2C0091FA0A20915C0AE6
:105A100030915D0A40915E0A50915F0A6091600A80
:105A20007091610A8091620A9091630A0E94B01796
:105A30005FC08EEE0E9429225BC0C091E207C83091
:105A400009F056C08EEB95E00E941B3C41E060E0FF
:105A500080917A0990917B090E94C41590937B09EB
:105A600080937A098091FD0A9091FE0A90938E08A6
:105A700080938D088091FB0A9091FC0A9093940882
:105A8000809393088091000B9091010B909398085C
:105A900080939708ACE5BAE0E5E8F8E00D90019254
:105AA000CA95E1F710927C0983E080937D0980E13B
:105AB0008093E2078DB79EB7845890400FB6F89454
:105AC0009EBF0FBE8DBFADB7BEB7119684E8ECE7A1
:105AD000F9E001900D928A95E1F70E943217CDB757
