:100000000C9446000C9463000C9463000C94630001
:100010000C9463000C9463000C9463000C94E10254
:100020000C9463000C94D1030C9463000C946F0344
:100030000C9405030C9463000C94A0030C943A04F4
:100040000C9463000C9463000C9463000C946300A4
:100050000C9463000C9463000C9463000C94630094
:100060000C9463000C9463000C9402040C946300E1
:100070000C9463000C9463000C9463000C94630074
:100080000C9463000C9463000C94630011241FBE55
:10009000CFEFD0E1DEBFCDBF15E0A0E0B1E0E8EDED
:1000A000F1E700E00BBF02C007900D92AE38B10738
:1000B000D9F71AE0AEE8B5E001C01D92AA38B10741
:1000C000E1F70C947D000C9400000E94E50980E0AB
:1000D00090E00895E0E0F0E0119280E1E030F80770
:1000E000D8F308950E94B33181E080939605682F7C
:1000F000809140060E9494170895CDEDD0E1DEBFB7
:10010000CDBF0E94E5090E946B020E94A6020E94D8
:1001100030020E94BA0A0E9479040E948B0F0E944A
:100120006904109296050E94CF0D0E94DF150E946F
:10013000FC3188E10FB681BD11BC0FBE8091200655
:10014000909121069F938F930E943312DC01CB0183
:10015000BF93AF939F938F9380E091E09F938F9392
:100160000E94E4340E94320B8DB79EB708960FB6FA
:10017000F8949EBF0FBE8DBF8091EC069927863004
:10018000910529F18730910534F4009791F0049797
:1001900009F4B6C049C18F30910509F440C08031DF
:1001A00091051CF40A97E1F03FC1429709F4C1C0E0
:1001B0003BC10E94DF1581E00E9445161092BC06EB
:1001C00026E048E050E060E070E080E006C026E015
:1001D00048E050E060E070E081E00E944F2524C1DB
:1001E0008091A1079091A2070E941E0E80919D0709
:1001F00090919E070E944A0E88249924AA24CA2C12
:10020000E090840701E02091AB074091890763E00B
:1002100080919D0790919E070E94422305C1809086
:10022000BC068820D1F48091970790919807898324
:100230009A8388E8A82EC980DA80EB80FC800D8143
:100240001E812F81388540919D0750919E0762E065
:10025000809140060E943328E7C08091960588234C
:1002600009F4E2C082E0898780919707909198070E
:100270008A8B9B8B20919D0730919E072C8B3D8B09
:1002800083E08E8B88E0A3EAB7E0FE0177960D90BD
:1002900001928A95E1F729A33AA381E08F931F92F7
:1002A0008BEF95E09F938F9384E18F938DB79EB7EB
:1002B0000D970FB6F8949EBF0FBE8DBFADB7BEB7FA
:1002C00011968DE0FE01769601900D928A95E1F7E8
:1002D000C984DA84EB84FC840D851E852F853889DA
:1002E00049895A896B897C898D890E94F2298DB749
:1002F0009EB742960FB6F8949EBF0FBE8DBF94C0B6
:100300008091EE069091EF06892B79F48091C306D7
:100310009091C406892B49F48091840890918508B6
:10032000892B19F481E08093BC0682E18093EC066E
:100330007BC083E00E94F30F1092960502E710E065
:1003400020E034E040E050E061E080E00E943505CC
:100350000E947D020E9442020E94B80288E00E9430
:10036000980B88E00E94980B62E0809120069091A3
:1003700021060E948013909321068093200661E05D
:100380000E9480139093210680932006892B39F0D8
:10039000E0912006F09121066081CF01F1CF80919C
:1003A000840890918508892B71F0E0918408F09180
:1003B000850842816181CF010E948515909385084F
:1003C00080938408F0CF8091EE069091EF06892B00
:1003D00039F08091EE069091EF060E94D51BF3CF85
:1003E0008091C3069091C406892B41F0E091C30629
:1003F000F091C40683810E94E31BF2CF80917607BF
:1004000090917707892B39F0809176079091770743
:100410000E947F1AF3CF84E391E00E94F93481E1D6
:100420008093EC060E9474040E94CC04A5CE1F9316
:100430000E946D04182F109243060E9446070E94E6
:1004400062070E9455070E9439070E9459070E94BF
:100450004A07812F0E946B0480E090E01F9108956D
:100460001F930E946D04182F0E945B078091430622
:10047000846080934306812F0E946B0480E090E0AB
:100480001F9108951F930E946D04182F0E94590711
:10049000809143068B7F80934306812F0E946B04DB
:1004A00080E090E01F9108951F93CF930E946D0408
:1004B000182F8091430682FF03C00E94420202C0AF
:1004C0000E943002C82F812F0E946B048C2F992725
:1004D000CF911F9108951F930E946D04182F0E94C1
:1004E0004C0780914306826080934306812F0E94CF
:1004F0006B0480E090E01F9108951F930E946D04AB
:10050000182F0E944A07809143068D7F80934306EF
:10051000812F0E946B0480E090E01F9108951F934B
:10052000CF930E946D04182F8091430681FF03C072
:100530000E947D0202C00E946B02C82F812F0E9480
:100540006B048C2F9927CF911F9108951F930E94C0
:100550006D04182F0E943B078091430681608093B1
:100560004306812F0E946B0480E090E01F91089564
:100570001F930E946D04182F0E9439078091430633
:100580008E7F80934306812F0E946B0480E090E071
:100590001F9108951F93CF930E946D04182F80918F
:1005A000430680FF03C00E94B80202C00E94A60258
:1005B000C82F812F0E946B048C2F9927CF911F91F8
:1005C00008951F920F920FB60F9211242F933F930D
:1005D0004F935F936F937F938F939F93AF93BF934B
:1005E000EF93FF930E94520DFF91EF91BF91AF9156
:1005F0009F918F917F916F915F914F913F912F913B
:100600000F900FBE0F901F90189578941F920F9225
:100610000FB60F921124EF92FF920F931F932F9317
:100620003F934F935F936F937F938F939F93AF937A
:10063000BF93CF93DF93EF93FF930E943312DC01BC
:10064000CB01E0912006F091210623813481458180
:1006500056812070307080709070281739074A07D3
:100660005B0731F50E946D04E82E00912006109181
:100670002106F801F0800E94B012EC01E091200602
:10068000F09121068785908990932106809320061A
:10069000C8010E948234209719F0DBBDCABD02C098
:1006A0000E946A128E2D0E946B048F2D0E94B0133F
:1006B000FF91EF91DF91CF91BF91AF919F918F917A
:1006C0007F916F915F914F913F912F911F910F916A
:1006D000FF90EF900F900FBE0F901F901895789499
:1006E0001F920F920FB60F9211241F932F933F93D7
:1006F0004F935F936F937F938F939F93AF93BF932A
:10070000EF93FF930E946D04182F0E942E12909376
:10071000D8058093D705812F0E946B04FF91EF913C
:10072000BF91AF919F918F917F916F915F914F9109
:100730003F912F911F910F900FBE0F901F90189512
:1007400078941F920F920FB60F9211242F933F931C
:100750004F935F936F937F938F939F93AF93BF93C9
:10076000EF93FF930E946D0420912206309123069F
:100770002F5F3F4F30932306209322060E946B0485
:10078000FF91EF91BF91AF919F918F917F916F9169
:100790005F914F913F912F910F900FBE0F901F903F
:1007A000189578941F920F920FB60F9211241F93F1
:1007B0002F933F934F935F936F937F938F939F9369
:1007C000AF93BF93EF93FF930E946D04182F0E9485
:1007D0002D141092D305812F0E946B040E9459148E
:1007E000FF91EF91BF91AF919F918F917F916F9109
:1007F0005F914F913F912F911F910F900FBE0F90DE
:100800001F90189578941F920F920FB60F92112493
:100810002F933F934F935F936F937F938F939F9308
:10082000AF93BF93CF93EF93FF930E946D04C82FB4
:100830000E94FC14009729F0909387008093860013
:1008400002C00E947B148C2F0E946B040E948A14A9
:10085000FF91EF91CF91BF91AF919F918F917F9138
:100860006F915F914F913F912F910F900FBE0F901D
:100870001F90189578941F920F920FB60F92112423
:100880001F932F933F934F935F936F937F938F9318
:100890009F93AF93BF93EF93FF930E946D04182F24
:1008A00081E296E00E947E04812F0E946B04FF91FA
:1008B000EF91BF91AF919F918F917F916F915F91D8
:1008C0004F913F912F911F910F900FBE0F901F904E
:1008D0001895789408958FBF08958FB7F894992745
:1008E000089500000000089585B7806285BF88954F
:1008F00008951092CC05109292050895BC018FB70F
:10090000F894482F55272091CC05E22FFF27EE0FB2
:10091000FF1FEE51FA4F80819181892B51F42F5F97
:1009200027702093CC05608371834FBF81E090E0F6
:1009300008954FBF80E090E0089508959F938F93AE
:100940008DE491E09F938F930E94E4340F900F9079
:100950000F900F9008958FB7F894482F55279091D6
:100960009205E92FFF27EE0FFF1FEE51FA4F20816E
:1009700031812115310519F44FBFF9010BC01082E7
:1009800011829F5F9770909392054FBFF90109956F
:10099000E1E0F0E0CF0108958FB7F894482F552794
:1009A00090919205E92FFF27EE0FFF1FEE51FA4FAE
:1009B000208131812115310511F44FBF09C010820A
:1009C00011829F5F9770909392054FBFF90109952F
:1009D000000000000895282F80B799278670907036
:1009E000892B61F42B3F10F08AEF06C0233010F4FE
:1009F00082E002C0822F815012BE81BF0895089507
:100A000081B78F5F9927089582B7992708951F931B
:100A10001092CF051092D0051092D1051092D205F8
:100A2000109294058FEF8093C7058093F205109282
:100A3000110685E08093930516EE10930F060E9431
:100A40006D0497B79E7F97BF97B79D7F97BF90B76D
:100A5000986090BF9DE093BF12BE11BF97B79260A0
:100A600097BF0E946B041F910895AF92BF92CF92DF
:100A7000DF92EF92FF920F931F93CF9359016A0178
:100A80009801833008F058C0623008F055C0E82E55
:100A9000FF248BE090E0E89E8001E99E100DF89E17
:100AA000100D11240E551A4FF801A182B282C38293
:100AB000D4826083218732870E946D04C82F82B759
:100AC000A80EB11CC11CD11CF801A582B682C78238
:100AD000D08621E030E040E050E004C0220F331F18
:100AE000441F551FEA94D2F78091CF059091D0050D
:100AF000A091D105B091D205822B932BA42BB52BBD
:100B00008093CF059093D005A093D105B093D205E3
:100B100080910F069927AA27BB27A816B906CA06EF
:100B2000DB0638F4A0920F068A2D0E94EB04109287
:100B300094058C2F0E946B0480E090E0CF911F9170
:100B40000F91FF90EF90DF90CF90BF90AF900895FE
:100B5000EF92FF920F931F938330E8F591E0E92E17
:100B6000F12C012D112D04C0EE0CFF1C001F111FD4
:100B70008A95D2F78091CF059091D005A091D105AB
:100B8000B091D2058E219F21A023B1230097A1050A
:100B9000B10509F10E946D04E094F0940095109560
:100BA0008091CF059091D005A091D105B091D2054B
:100BB0008E219F21A023B1238093CF059093D00550
:100BC000A093D105B093D2050097A105B10519F402
:100BD00081E0809394051F910F91FF90EF9008950D
:100BE00090911106992319F423E030E016C080910A
:100BF000F205823019F48FEF8093F2058091F205AF
:100C00008F5F8093F205915090931106E82FFF2794
:100C1000E956FA4F8081282F3327233080F4332779
:100C20008BE090E0289FF001299FF00D389FF00D98
:100C30001124EE55FA4F0184F285E02D09950895AF
:100C400008954F925F926F927F929F92AF92BF9260
:100C5000CF92DF92EF92FF920F931F93CF93DF9388
:100C600081E0809394058091CF059091D005A0916B
:100C7000D105B091D2050097A105B10509F489C04D
:100C8000992462EAC62E65E0D62EAA24BB2451E040
:100C9000E52EF12C012D112D0A2C04C0EE0CFF1CA9
:100CA000001F111F0A94D2F74090CF055090D00535
:100CB0006090D1057090D205D301C2018E219F2191
:100CC000A023B1230097A105B10509F456C0809176
:100CD0000F0699270196AA2797FDA095BA2FF6012E
:100CE0002581368147815085281B390B4A0B5B0BC8
:100CF00025833683478350872330310541055105CD
:100D0000E4F58081882369F481819281A381B48193
:100D1000280F391F4A1F5B1F25833683478350875F
:100D200012C0D801C70180959095A095B095482232
:100D300059226A227B224092CF055092D0056092C0
:100D4000D1057092D2058091C705823019F48FEFDA
:100D50008093C7059091C7059F5F9093C7058091C9
:100D600011068F5F80931106E92FFF27E956FA4F8E
:100D7000908280EF95E00E947E0493940894A11CD9
:100D8000B11C8BE090E0C80ED91E92E0991508F0D6
:100D90007ECF46EEE42E4090CF055090D005609077
:100DA000D1057090D205411451046104710499F188
:100DB00031E0A32EB12CC12CD12C62EA75E000E009
:100DC00010E022E0F22ED601C501002E04C0880FEB
:100DD000991FAA1FBB1F0A94D2F784219521A6212F
:100DE000B7210097A105B10579F02E2D33274427AF
:100DF0005527FB0185819681A781B08582179307CE
:100E0000A407B5070CF4E580FA940F5F1F4F655FE8
:100E10007F4FF7FED8CF0E946D04182FE0920F0687
:100E20008E2D0E94EB0410929405812F0E946B047A
:100E3000DF91CF911F910F91FF90EF90DF90CF90B6
:100E4000BF90AF909F907F906F905F904F9008956C
:100E50000000000008951816190654F40000000060
:100E60000000000000000000000000000197F3CF28
:100E70000895DA9A0895DA98089589B3992796958E
:100E8000879596958795817090700895D29A089568
:100E9000D2980895D99A0895D998089589B3992731
:100EA00096958795817090700895D19A0895D198FC
:100EB0000895D89A0895D898089589B3992781708C
:100EC00090700895D09A0895D0980895DC9A089566
:100ED000DC98089589B3992744E0969587954A95BB
:100EE000E1F7817090700895D49A0895D498089588
:100EF000DD9A0895DD98089589B3992755E0969570
:100F000087955A95E1F7817090700895D59A089564
:100F1000D5980895DF9A0895DF98089580E090E0CD
:100F2000CF9B02C081E090E008950895D79A08957C
:100F3000D7980895DE9A0895DE98089589B3992781
:100F400066E0969587956A95E1F7817090700895AF
:100F5000D69A0895D6980895DD9A0895DD98089553
:100F600089B3992775E0969587957A95E1F7817011
:100F700090700895D59A0895D59808951E9A089569
:100F80001E98089581B19927E6E096958795EA9590
:100F9000E1F7817090700895169A08951698089553
:100FA000969A08959698089580B39927F6E09695B5
:100FB0008795FA95E1F78170907008958E9A08955B
:100FC0008E980895949A08959498089580B39927D7
:100FD000A4E096958795AA95E1F7817090700895A1
:100FE0008C9A08958C980895C09A0895C098089591
:100FF00086B39927817090700895B89A0895B8982B
:101000000895C79A0895C798089580E090E0B79B27
:1010100002C081E090E008950895BF9A0895BF98B6
:101020000895969A08959698089580B39927B6E002
:1010300096958795BA95E1F78170907008958E9A8C
:1010400008958E980895DB9A0895DB98089589B3E2
:10105000992723E0969587952A95E1F781709070FE
:101060000895D39A0895D3980895959A08959598D8
:10107000089580B3992735E0969587953A95E1F7DD
:101080008170907008958D9A08958D980895939A1F
:1010900008959398089580B3992743E0969587958E
:1010A0004A95E1F78170907008958B9A08958B9816
:1010B0000895929A08959298089580B399279695E5
:1010C0008795969587958170907008958A9A08956E
:1010D0008A9808951C9A08951C98089581B19927BB
:1010E00064E0969587956A95E1F781709070089510
:1010F000149A0895149808951D9A08951D980895B6
:1011000081B1992775E0969587957A95E1F7817079
:1011100090700895159A0895159808951E9A089547
:101120001E98089581B19927E6E096958795EA95EE
:10113000E1F7817090700895169A089516980895B1
:101140001F9A08951F98089580E090E00F9B02C0B9
:1011500081E090E008950895179A089517980895EA
:10116000C29A0895C298089586B39927969587954F
:1011700096958795817090700895BA9A0895BA9857
:101180000895C39A0895C398089586B39927A3E054
:1011900096958795AA95E1F7817090700895BB9A0E
:1011A0000895BB980895C19A0895C198089586B38B
:1011B000992796958795817090700895B99A0895AA
:1011C000B9980895A89A0895A898089583B399277F
:1011D000817090700895A09A0895A0980895A99A92
:1011E0000895A998089583B3992796958795817056
:1011F00090700895A19A0895A1980895AA9A0895C3
:10120000AA98089583B3992796958795969587957B
:10121000817090700895A29A0895A2980895AB9A4B
:101220000895AB98089583B3992743E096958795E1
:101230004A95E1F7817090700895A39A0895A39854
:101240000895AC9A0895AC98089583B3992754E013
:10125000969587955A95E1F7817090700895A49AB4
:101260000895A4980895AD9A0895AD98089583B30C
:10127000992765E0969587956A95E1F7817090705A
:101280000895A59A0895A5980895AE9A0895AE98E0
:10129000089583B3992776E0969587957A95E1F737
:1012A000817090700895A69A0895A6980895AF9AAF
:1012B0000895AF98089580E090E09F9B02C081E080
:1012C00090E008950895A79A0895A7980895909A90
:1012D00008959098089580B399278170907008952B
:1012E000889A089588980895919A089591980895F4
:1012F00080B3992796958795817090700895899A03
:10130000089589980895189A08951898089581B1B4
:101310009927817090700895109A089510980895F3
:10132000199A08951998089581B1992796958795E6
:10133000817090700895119A0895119808951A9ADD
:1013400008951A98089581B199279695879596954D
:101350008795817090700895129A08951298089553
:10136000929A08959298089580B3992796958795B3
:10137000969587958170907008958A9A08958A98B5
:101380000895939A08959398089580B3992723E038
:10139000969587952A95E1F78170907008958B9ABC
:1013A00008958B980895959A08959598089580B317
:1013B000992735E0969587953A95E1F78170907079
:1013C00008958D9A08958D9808950E9446070E9469
:1013D00062070E9455070E9463090E9453090E94F8
:1013E00041090E942F090E941D090E940B090E94B9
:1013F000FA080E94EB080E94D1080E94BD080E94D2
:10140000DE080E94A8070E94BA070E94FF070E94F8
:10141000CE070E94E0070E94F2070E940F080E9478
:1014200021080E9476070E9468070E9431080E94E6
:1014300055080E9443080E9423080E9439070E9411
:1014400059070E944A070895CF93DF93CDB7DEB7BF
:1014500022970FB6F894DEBF0FBECDBF81E089831F
:101460001A8280E090E029813A812130310509F427
:10147000C90122960FB6F894DEBF0FBECDBFDF9133
:10148000CF910895CF93DF93CDB7DEB722970FB6F4
:10149000F894DEBF0FBECDBFAC0181E089831A8214
:1014A00089819A81019711F49A0102C0252F342F66
:1014B000C90122960FB6F894DEBF0FBECDBFDF91F3
:1014C000CF910895CF93DF93CDB7DEB722970FB6B4
:1014D000F894DEBF0FBECDBFAC0181E089831A82D4
:1014E00089819A81019711F49A0102C0252F342F26
:1014F000C90122960FB6F894DEBF0FBECDBFDF91B3
:10150000CF910895882319F0862F9927089580E0B8
:1015100090E008950895982F442311F0332702C0D6
:1015200020E030E0662311F0332702C020E030E0F5
:10153000992311F0332702C020E030E0822F992751
:101540000895CF93C82F8A3019F48DE00E94A10A24
:101550005D9BFECFCCB980E090E0CF9108955D9B7C
:10156000FECF8CB980E090E008955F9BFECF8CB1F8
:101570009927089588E18AB988E089B940E050E068
:1015800065EB7AE081EA9AE00E948A33089581E06F
:10159000809391050E94D1080E94BD080E94DE0838
:1015A0000E94A8070E94BA070E94FD070E94CE076A
:1015B0000E94E0070E94F2070E940F0880E090E07E
:1015C000089580E098EF909325068093240682EE9C
:1015D00092E0909327068093260680E095E0909312
:1015E00029068093280680E890EE90932B0680933E
:1015F0002A068FE097EA90932D0680932C068FEFB2
:1016000090E690932F0680932E0685EE92E19093BC
:1016100031068093300686E59AE0909333068093F6
:1016200032068DE391E4909335068093340684EC82
:1016300091E0909337068093360610923906109207
:10164000380610923B0610923A068FE792E090938C
:101650003D0680933C0610923F0610923E0680E0C5
:1016600090E008958AB78F7E8ABF8AB780628ABF6A
:1016700089B7806489BF80E090E008950F931F933D
:10168000CF93DF93182F0E946D04082F10929105BD
:101690000E94F60710641FB9779BFECF8FB11FB869
:1016A000779BFECF8FB1C82FDD271FB8779BFECF6A
:1016B000DC2FCC278FB19927C82BD92B0E94F40798
:1016C00081E080939105802F0E946B04CE01DF9111
:1016D000CF911F910F910895FF920F931F93CF9376
:1016E000DF93182FEB010E946D04F82E10929105E4
:1016F0000E94F6071FB9779BFECF0FB11F3040F055
:101700008D2F99278FB9779BFECFCFB9779BFECFCF
:1017100081E0809391058F2D0E946B040E94F40755
:10172000802F9927DF91CF911F910F91FF900895FE
:101730001F93CF93182F0E946D04C82F0E94F607A5
:101740001FB9779BFECF1FB18C2F0E946B040E94A4
:10175000F407812F9927CF911F9108956091240656
:101760007091250680E10E946C0B609126067091B5
:10177000270681E10E946C0B81E10E943E0B2091C3
:101780002606309127068217930719F080E090E033
:101790000895609128067091290682E10E946C0BE1
:1017A00060912A0670912B0683E10E946C0B609178
:1017B0002C0670912D0684E10E946C0B60912E0620
:1017C00070912F0685E10E946C0B6091300670913C
:1017D000310686E10E946C0B6091320670913306EF
:1017E00087E10E946C0B609134067091350688E1A8
:1017F0000E946C0B609136067091370689E10E9459
:101800006C0B60913806709139068AE10E946C0B6E
:1018100060913C0670913D068CE10E946C0B6091DA
:101820003E0670913F068DE10E946C0B89E00E949C
:10183000980B88E00E94980B81E090E0089508954D
:10184000DF92EF92FF920F931F93CF93DF93EC0100
:10185000062F7A0110E080919105882359F10E94AA
:101860006D04D82E109391050E94F6078C2F806886
:101870008FB9779BFECF8FB1D695C7958C2F807E81
:101880008FB9779BFECF8FB11FB810E0101750F4BF
:10189000779BFECFF701E10FF11D8FB180831FB859
:1018A0001F5FF4CF0E94F4078D2D0E946B0481E02E
:1018B0008093910580E090E0DF91CF911F910F918F
:1018C000FF90EF90DF900895DF92EF92FF920F93D9
:1018D0001F93CF93DF93EC01062F7A0110E08091E4
:1018E0009105882349F10E946D04D82E109391052B
:1018F0000E94F6078C2F80688FB9779BFECF8FB13F
:10190000D695C7958C2F807C8FB9779BFECF8FB1F2
:1019100010E0101748F4F701E10FF11D80818FB935
:10192000779BFECF1F5FF5CF0E94F4078D2D0E949D
:101930006B0481E08093910580E090E0DF91CF918E
:101940001F910F91FF90EF90DF900895FF920F93FA
:101950001F93CF93F82E8B010E946D04C82F109215
:10196000CD05F092C90510938F0500938E050E9456
:10197000F6078EE38FB9779BFECF0FB19091C90523
:101980009E5F9FB99250779BFECF0FB120E0291741
:1019900070F4E0918E05F0918F0581918FB9F093ED
:1019A0008F05E0938E05779BFECF2F5FF0CF81E010
:1019B0008093CD058C2F0E946B040E94F407802F2A
:1019C0009927CF911F910F91FF9008950F931F9327
:1019D000CF930E946D04C82F1092CD050E94F60788
:1019E0008FE78FB9779BFECF8FB11FB8779BFECF64
:1019F0009FB190931C0680919005082F1127000F2E
:101A0000111F085E194F892F992701960E94D33321
:101A1000F8018083918390911C06992351F1809164
:101A20009005E82FFF27EE0FFF1FE85EF94F0190AA
:101A3000F081E02D908380911C068F5F80931C06BF
:101A400091E09817B0F41FB8779BFECF8091900576
:101A5000E82FFF27EE0FFF1FE85EF94F0190F0819E
:101A6000E02DE90FF11D8FB180839F5F80911C06EF
:101A7000E8CF81E08093CD0580911206815080935C
:101A80001206809190058F5F8170809390058C2F56
:101A90000E946B040E94F4070E946511CF911F9170
:101AA0000F9108950E940508892B61F48FE30E942D
:101AB0003E0B1092120688E00E94980B88E00E946C
:101AC000980B1AC0809112068F5F809312060E94B5
:101AD0001614DC01CB018093C3059093C405A09339
:101AE000C505B093C60580911D06823028F48F5F2E
:101AF00080931D060E94E60C80E090E008951F93FD
:101B0000CF9310E0C12F81E00E94980B84E690E013
:101B10000E942B0780E00E94980B86FD11E0CF5FAA
:101B2000C83C10F4112391F380E090E0CF911F9115
:101B3000089587E00E94980B80E090E008950E944D
:101B4000AC0788E097E00E942B0780E090E00895C2
:101B50000E94AE0788E097E00E942B0780E090E0AB
:101B6000089580912606909127068061909327061C
:101B700080932606BC0181E10E946C0B9927089591
:101B800080912606909127068F7E9093270680935A
:101B90002606BC0181E10E946C0B99270895809173
:101BA0002606909127069860909327068093260634
:101BB000BC0181E10E946C0B992708958091260653
:101BC00090912706977F9093270680932606BC0165
:101BD00081E10E946C0B9927089583E00E94980B85
:101BE00080E090E0089584E00E94980B80E090E00F
:101BF000089585E00E94980B80E090E0089586E0CB
:101C00000E94980B80E090E0089595E08902900191
:101C10001124225D3E4F80913406909135068070EC
:101C20009C7F822B932B9093350680933406BC01C6
:101C300088E10E946C0B80E090E00895CF93DF93E1
:101C4000CDB7DEB722970FB6F894DEBF0FBECDBF7B
:101C500089839A830E94420A89839A83AE014F5FE7
:101C60005F4F62E08AE691E00E94640C80E090E0C1
:101C700022960FB6F894DEBF0FBECDBFDF91CF9195
:101C80000895AC0162E08AE691E00E94200C80E0B9
:101C900090E00895CF93DF93CDB7DEB722970FB6CC
:101CA000F894DEBF0FBECDBF89839A830E94420A9B
:101CB00089839A83AE014F5F5F4F62E088E691E0CF
:101CC0000E94640C80E090E022960FB6F894DEBF8C
:101CD0000FBECDBFDF91CF910895CF93DF93CDB7E6
:101CE000DEB722970FB6F894DEBF0FBECDBF898353
:101CF0009A83AE014F5F5F4F62E088E691E00E94F9
:101D0000200C80E090E022960FB6F894DEBF0FBE64
:101D1000CDBFDF91CF91089580913C0690913D0613
:101D2000986090933D0680933C06BC018CE10E9434
:101D30006C0B0895AC0168E080E691E00E94200CF5
:101D40000895AC0168E080E691E00E94640C08957B
:101D500080912606909127069061909327068093A4
:101D60002606BC0181E10E946C0B08950F931F931E
:101D7000CF931092F6051092F5051092C8051092B7
:101D8000900510921D06109212061092C305109233
:101D9000C4051092C5051092C6051092F705109261
:101DA000F8051092F9051092FA0501E000939105EB
:101DB0000E94D1080E94BD080E94DE080E94A80768
:101DC0000E94BA070E94FD070E94CE070E94E0070A
:101DD0000E94F2070E940F080E946D04182F0E94B3
:101DE000DE080E94D1080E94BD08709A6C9A6B9818
:101DF0006A98699868986E9A812F0E946B040E9475
:101E0000AC0788E097E00E942B070E949C0784E1C2
:101E100090E00E942B0784E190E00E942B070E9433
:101E20009A07C0E01C2F802F0E94980B84E690E058
:101E30000E942B0780E00E94980B86FDC1E01F5F87
:101E4000183C10F4CC2391F380E098EF9093250692
:101E50008093240682EE92E09093270680932606D4
:101E600080E095E0909329068093280680E890EE24
:101E700090932B0680932A068FE097EA90932D0685
:101E800080932C068FEF90E690932F0680932E067A
:101E900085EE92E1909331068093300686E59AE0D4
:101EA00090933306809332068DE391E49093350648
:101EB0008093340684EC91E0909337068093360645
:101EC000109239061092380610923B0610923A068C
:101ED0008FE792E090933D0680933C0610923F0678
:101EE00010923E060E94AE0B88E00E94980B88E09C
:101EF0000E94980B809126069091270690619093FE
:101F0000270680932606BC0181E10E946C0BCF91CD
:101F10001F910F91089593E0909340068FE1809375
:101F20004106909342060E9452120E94B60E0895F6
:101F30000E94A60C84E00E94980B0E94E607892B61
:101F4000E1F30E94E6070197E1F30E941614DC0119
:101F5000CB018093F7059093F805A093F905B09312
:101F6000FA05BC01CD0108958CE20E943E0B9C0154
:101F70008130910519F488E090E008958032910550
:101F800031F08297069718F02833310519F489E06B
:101F900090E008950E94D407019719F484E090E03E
:101FA000089580E090E008950895CF93DF93C0E016
:101FB000D0E08CE20E943E0B282F813011F4C8E063
:101FC0000EC0803229F08252863010F0283311F48E
:101FD000C9E005C0C7E083E10E943E0BD82FCE01C7
:101FE000DF91CF9108951F93182F8CE20E943E0B32
:101FF0009C01412F55274630510509F43DC047301B
:10200000510524F443305105E1F047C048305105F3
:1020100021F049305105B9F040C08130910541F1BE
:102020008297069788F1C901C097079768F1C9019F
:102030000397049788F02031310571F0283231057B
:1020400059F086E025C00397049730F02031310520
:1020500019F02832310519F481E090E020C0C9015F
:102060008297069728F0205330402730310510F42E
:10207000CA0115C084E00CC08297069728F020534F
:1020800030402730310518F482E090E008C083E04A
:102090000E94980B87E090E002C08AE090E01F91D8
:1020A00008956F927F928F929F92AF92BF92CF923C
:1020B000DF92EF92FF920F931F93CF93DF93CDB7F1
:1020C000DEB723970FB6F894DEBF0FBECDBFAA24AC
:1020D000BB246501B601A5018601750135014601E4
:1020E000982FE7E0E9831B828A83282F332721304A
:1020F000310599F0223031051CF4232B29F01FC043
:102100002230310599F01BC0809140068B83AE2EA2
:10211000B92EC82EC601B50119C0809141068B8326
:102120004E2F592F682FCB01BA0110C08091420663
:102130008B83EE2EF92E082FC801B70107C08AE065
:102140008983682E7A808B80C401B30123960FB6F1
:10215000F894DEBF0FBECDBFDF91CF911F910F91DD
:10216000FF90EF90DF90CF90BF90AF909F908F90B7
:102170007F906F900895CF93DF93C7E0D0E0D82F82
:1021800099278130910579F0823091051CF4892BD3
:1021900021F034C00297C9F031C060934006862F09
:1021A0000E94050E2CC06093410680912E069091EE
:1021B0002F06807F262F3327822B932B90932F0679
:1021C00080932E06BC0185E116C0609342062091E3
:1021D0002E0630912F062F73862F992746E0880F01
:1021E000991F4A95E1F7282B392B30932706209326
:1021F0002606B90181E10E946C0B01C0CAE0CE0144
:10220000DF91CF910895AF92BF92CF92DF92EF927C
:10221000FF920F931F930E9433125B016C01809118
:10222000E6069091E706A091E806B091E906A601BE
:102230009501281B390B4A0B5B0BDA01C901B695D6
:10224000A7959795879565E0E62EF12C012D112D28
:10225000BC01CD01A80197010E94B638DC01CB0179
:10226000E81AF90A0A0B1B0BEE0CFF1C001F111FCA
:10227000EA0CFB1C0C1D1D1D0E943312DC01CB015E
:102280008E159F05A007B107B8F38AE00E94980B4E
:102290000E94E607892BE1F30E94E6070197E1F32C
:1022A0000E941614DC01CB018093F7059093F8058A
:1022B000A093F905B093FA051F910F91FF90EF904D
:1022C000DF90CF90BF90AF900895DF92EF92FF9292
:1022D0000F931F93CF93DF938091900520911D065C
:1022E000820F817080931506E82FFF27EE0FFF1FE6
:1022F000E85EF94FC081D181D093F605C093F50512
:10230000F98083E0F822E880FE01EE0DF11D31979F
:10231000D0808091D60599278330910509F18430CA
:10232000910524F4892B09F444C066C0049709F090
:1023300063C0FF20C1F4215020931D068091C30586
:102340009091C405A091C505B091C6058C019D0171
:102350004D2DBE018E2D0E94221EF092D6055DC02D
:1023600082E0F81611F0CE0151C0215020931D06D5
:1023700040E06B8180918408909185080E948515CA
:1023800090938508809384088091C3059091C4053B
:10239000A091C505B091C6058C019D014D2D6091A0
:1023A000F5057091F6058E2D0E94221E1092D6051D
:1023B00034C00E94CA0280911D06815080931D0680
:1023C000E091F505F091F605818185FF02C00E943C
:1023D00003118091C3059091C405A091C505B091EA
:1023E000C6058C019D014D2D6091F5057091F60596
:1023F0008E2D0E94221E11C080911506E82FFF2706
:10240000EE0FFF1FE85EF94F808191810E948234B8
:1024100080911D06815080931D060E946D04C82F77
:1024200080911D06882359F480911206882339F083
:1024300081E080931D0686EE9CE00E947E048C2F36
:102440000E946B04DF91CF911F910F91FF90EF904D
:10245000DF90089508958CB59DB50895809122066A
:10246000909123060895EF92FF920F931F930E947D
:102470006D04282F8CB59DB57C010091220610912A
:10248000230606B602FE04C097FD02C00F5F1F4F71
:10249000822F0E946B04C801B7011F910F91FF901A
:1024A000EF900895109221061092200610922306B4
:1024B000109222061DBC1CBC1FBC1EBC0E946D04D9
:1024C00097B7946297BF0E946B0485EC8EBD089508
:1024D0001EBC08950E946D0497B79F7E97BF0E940F
:1024E0006B0408950F931F938C010E946D0496B79F
:1024F000906196BF1BBD0ABD97B7906197BF0E94C0
:102500006B0480E090E01F910F9108950E94721279
:102510000895EF92FF920F931F937B018C01EE0CB5
:10252000FF1C001F111F0E943312DC01CB01E80EBB
:10253000F91E0A1F1B1FC801B7011F910F91FF90C1
:10254000EF9008950F931F938C010E946D041BBDA3
:102550000ABD0E946B0481E090E01F910F910895E5
:10256000E0912006F09121060784F089E02D309754
:1025700019F0818192810895CF01089508952F92D5
:102580003F924F925F926F927F928F929F92AF9203
:10259000BF92CF92DF92EF92FF920F931F93CF9350
:1025A000DF933C01162F19012A0181E190E00E947E
:1025B000D3334C01FC011786108A10836114710417
:1025C00089F5C201B1010E9489127B018C016F3F24
:1025D000FFEF7F07F0E08F07F0E09F0710F4CB01DB
:1025E0000BC02FEFA22E2FEFB22EC12CD12CA62282
:1025F000B722C822D922C5010E94721280E0E816D3
:1026000080E0F80681E0080780E0180710F0C501B7
:1026100001C0C701F40181839283E382F4820583C0
:10262000168359C0C201B1010E9489127B018C013D
:102630009FEFA92E9FEFB92EC12CD12CAE20BF2029
:10264000C022D122F0E0EF16F0E0FF06F1E00F0724
:10265000F0E01F0710F0C50101C0C701F40181833C
:102660009283E382F482058316836301E30161149C
:102670007104E9F08B819C81AD81BE81E816F90679
:102680000A071B07A0F06E010F84D889C02D209780
:1026900071F0F40123813481458156818B819C81C5
:1026A000AD81BE81281739074A075B0760F7C61559
:1026B000D70549F00E94CA02F6018786908AF40184
:1026C000C787D08B09C0F401818192810E94A21238
:1026D000F4016786708A3401C301DF91CF911F91A5
:1026E0000F91FF90EF90DF90CF90BF90AF909F90B1
:1026F0008F907F906F905F904F903F902F900895B4
:10270000EF92FF920F931F93CF93DF937C01FC0115
:10271000EC018881861729F0FE010F84D889C02D2D
:10272000F8CF0F851889CE15DF0569F4011511055D
:1027300019F40E946A1205C0F801818192810E94F9
:10274000A212780102C00787108BCE010E9482344A
:10275000C701DF91CF911F910F91FF90EF900895E6
:10276000992782309105E9F08330910534F4009780
:1027700059F0019709F450C04BC08330910509F41A
:1027800042C0049721F144C00E9430020E946B02B3
:1027900082E08093D60581E00E94E92080E591E007
:1027A00013C085E08093D6058091EC068093D20615
:1027B00081E18093EC0683E00E94F30F0E947D028A
:1027C0000E94420284E691E00E94F93408958BE76A
:1027D00091E00E94F9348091BC06882321F486E0C0
:1027E0008093EC0608958091AE078F5F8093AE07CB
:1027F0008A3019F41092AE07089561E08091400686
:102800000E949417089582ED90E30E947E0408953B
:1028100085E891E00E949E04089508958091D7056F
:102820009091D805089586B597B50895EF92FF92D7
:102830000F931F930E946D0426B537B5790120913F
:10284000D7053091D80589010E946B04C801B701F2
:102850001F910F91FF90EF90089587B78F7787BFF3
:1028600008951F93CF93182FC62F683088F4C8603F
:102870000E946D0497B79F7797BF97B79F7B97BFCD
:10288000C5BD14BC13BD97B7906897BF0E946B0479
:1028900080E090E0CF911F9108950E946D04109206
:1028A000D30597B79F7797BF0E946B0480E090E0B5
:1028B0000895E091CA05F091CB050995089580919E
:1028C000D30599270895EF92FF921F93182F7B014C
:1028D0000E946D04F092CB05E092CA0591E09093BE
:1028E000D3050E946B0464E0812F0E9431141F9174
:1028F000FF90EF9008950E946D0490917D009F7E5F
:1029000090937D0090917C00906190937C000E9458
:102910006B0408950E94D81508951F93CF93DF93F9
:10292000EC01162F683028F08CE991E00E949E049B
:1029300024C00E946D0490917C00906190937C0073
:10294000D0938700C0938600109285001092840077
:1029500010928300109282001092890010928800D9
:1029600010928B0010938A0010928C0090917D0041
:10297000906190937D000E946B0480E090E0DF9175
:10298000CF911F910895AA27BB27880F991FAA1FCF
:10299000BB1F803020E0920721E0A20720E0B207B1
:1029A00010F465E002C065E001960E948D14089560
:1029B0000895209188003091890044275527AA273F
:1029C000BB27880F991FAA1FBB1F280F391F4A1F3B
:1029D0005B1FCA01B90108950F931F938C010E94D8
:1029E0006D0410938700009386000E946B0481E0C1
:1029F00090E01F910F9108950E94D51508950895B4
:102A0000AF92BF92DF92EF92FF920F931F93CF93FB
:102A1000DF935C01F62ED42EE22E8BE090E00E9434
:102A2000D333EC0119861A86EA82F882D982A1147E
:102A3000B104D1F4C8010E94C31422273327000F28
:102A4000111F221F331FC801003040E0140741E06E
:102A5000240740E0340708F001968B839C830D83A4
:102A60001E832F83388745C0C8010E94D9148B016B
:102A70009C01CB010030E0E01E07E1E02E07E0E022
:102A80003E0708F001968B839C830D831E832F8362
:102A90003887B5017501F50185819681A781B085DB
:102AA00080179107A207B307A8F4B701F701E184E3
:102AB000F284E114F10471F02D813E814F8158853B
:102AC000F70185819681A781B08582179307A407B6
:102AD000B50758F3EA14FB0431F0FB01C187D28734
:102AE000E986FA8607C08B819C810E94EC14A98636
:102AF000BA865E01C501DF91CF911F910F91FF90C2
:102B0000EF90DF90BF90AF900895EF92FF920F93F8
:102B10001F93CF93DF937C01DC01EC01413071F016
:102B200004C0DE010984DA85C02D8981861719F475
:102B30008A81841799F02097A1F712C0FC01828145
:102B4000841761F0E114F10449F0DE010984DA85AB
:102B5000C02D8A81813011F02097B9F7209729F490
:102B600084EB91E00E949E0418C009851A85CE1559
:102B7000DF0569F40115110519F40E947B1405C0E5
:102B8000F801838194810E94EC14780103C0FD0157
:102B900001871287CE010E948234C701DF91CF9155
:102BA0001F910F91FF90EF9008950E94181C0895B7
:102BB0000E94701A88E194E20E947E0408951092A7
:102BC0008508109284081092EC061092D605109297
:102BD000C4061092C3061092BE061092BD06109253
:102BE000B9071092BA071092EF061092EE061092F3
:102BF000D1061092D00610927707109276071092A5
:102C0000C0061092BF061092C2061092E5068FEF22
:102C10009FEF9093C6068093C50610927807109296
:102C2000790710927A0710927B0710927C07109216
:102C30007D0710927E0710927F078EEF9FEF909393
:102C4000CE078093CD071092AF0610922106109206
:102C500020061092A3071092A4071092A5071092C5
:102C6000A6071092A7071092A8071092A907109222
:102C7000AA0710928C08EDE8F8E08FE011928150DD
:102C800087FFFCCF1092AE070895FF920F931F931A
:102C9000CF93DF93CDB7DEB760970FB6F894DEBF62
:102CA0000FBECDBF86E38093810781E080938207CA
:102CB00082E089871A861B861C861D861E868FEFFA
:102CC0008F87888BFE01319697E0F92E808581935E
:102CD000FA94F7FEFBCF88E0F82ECE0101960E9411
:102CE000A10E1092BC06109283071092840786E012
:102CF00080938507109287071092860710928807A5
:102D00008093890710928A0710928B0710928C0784
:102D100010928D070FE817E0E8E7F7E0D8018F2D54
:102D200001900D928A95E1F72091C5063091C60673
:102D3000309398072093970710929A0782E0809328
:102D40009B0783E080939C0730939E0720939D0709
:102D500010929F0781E08093A0073093A2072093F1
:102D6000A10785E08093AB0785E090E09093AD07E5
:102D70008093AC07C80144960E949A0EF80174969D
:102D8000D8018F2D01900D928A95E1F788E890E0A7
:102D900090939807809397079093A2078093A10739
:102DA00086E690E090939E0780939D078F2D0E946A
:102DB000F30F882319F480E090E002C083EE90E0E6
:102DC00060960FB6F894DEBF0FBECDBFDF91CF91F6
:102DD0001F910F91FF9008950895CF93DF93CDB782
:102DE000DEB78D81882309F041C08E81833011F4D4
:102DF00080E13DC08130D1F58AE08093EC068A8D78
:102E0000982F9F709093890782958F708093AB075E
:102E1000888D998D90939E0780939D078D85823034
:102E200039F48E899F8990939807809397071AC0E9
:102E30008330C1F42E853F85488959896A897B8909
:102E40008C899D8920938F07309390074093910739
:102E5000509392076093930770939407809395071C
:102E6000909396078C858093400603C08AE08093F8
:102E7000EC06DF91CF9108950895CF93DF93EC0195
:102E8000693E19F480EE91E004C06B3E29F484E1C0
:102E900092E00E94F93418C06623B1F484E0809374
:102EA000EC066093D60586E00E94F30FD093A2074C
:102EB000C093A107CE010E941E0E80919D079091A4
:102EC0009E070E944A0E03C08FE08093EC06DF91BC
:102ED000CF910895CF93DF93CDB7DEB728970FB684
:102EE000F894DEBF0FBECDBF29833A834B835C834A
:102EF0006D837E838F8398878AE492E00E94F93401
:102F000028960FB6F894DEBF0FBECDBFDF91CF91EC
:102F10000895882321F48AE892E00E94F934089504
:102F200008950895089508951F93182F8EE08093B3
:102F3000EC0686E00E94F30F612F80E00E94BB1038
:102F40008091BC06882361F48091C5069091C606E5
:102F50000E941E0E80919D0790919E070E944A0E2E
:102F600064E06093D60581E08093E50680EA90E016
:102F7000A0E0B0E09C01AD010090890704C0220FE1
:102F8000331F441F551F0A94D2F72093CC06309369
:102F9000CD064093CE065093CF060090AB0704C0F9
:102FA000880F991FAA1FBB1F0A94D2F78093D706D8
:102FB0009093D806A093D906B093DA0680912006A4
:102FC000909121060E94BF129093210680932006C3
:102FD0001092C7061F91089561E0809140060E94FB
:102FE000941708956F927F928F929F92AF92BF92A3
:102FF000CF92DF92EF92FF920F931F930E943312B2
:103000003B014C018091D3069091D406A091D50646
:10301000B091D60664015301A81AB90ACA0ADB0A9C
:10302000681679068A069B0640F48FEF9FEFAFEF94
:10303000BFE3A80EB91ECA1EDB1E860175011695D8
:103040000795F794E7948091D7069091D806A091C0
:10305000D906B091DA068E199F09A00BB10B9C011D
:10306000AD0162E080912006909121060E94BF127E
:10307000FC0190932106809320068091CC069091CC
:10308000CD06A091CE06B091CF068E199F09A00B58
:10309000B10B9C01AD0161E0CF010E94BF12909382
:1030A0002106809320068091D3069091D406A091AA
:1030B000D506B091D6068093E6069093E706A093D6
:1030C000E806B093E9068091D7069091D806A091C2
:1030D000D906B091DA06880F991FAA1FBB1F8A195B
:1030E0009B09AC09BD09860D971DA81DB91D8093CC
:1030F000E1069093E206A093E306B093E406809184
:10310000CC069091CD06A091CE06B091CF06880F47
:10311000991FAA1FBB1F8A199B09AC09BD09860DFF
:10312000971DA81DB91D8093440690934506A09352
:103130004606B09347061F910F91FF90EF90DF90E6
:10314000CF90BF90AF909F908F907F906F90089599
:103150008AEC92E00E94F93482E18093EC060895B3
:10316000CF93DF93CDB7DEB784EF92E00E94F934BE
:103170008DB79EB7845890400FB6F8949EBF0FBE8F
:103180008DBFEDB7FEB7319684E8A5E0B0E0AC0F97
:10319000BD1F0D9001928A95E1F70E9431338DB7E2
:1031A0009EB78C579F4F0FB6F8949EBF0FBE8DBF32
:1031B000DF91CF910895982FE091C306F091C40656
:1031C0008381891721F00184F285E02DF9CFCF01A9
:1031D0000895CF92DF92EF92FF920F931F93CF93B8
:1031E000DF93CDB7DEB72D970FB6F894DEBF0FBED5
:1031F000CDBFC982DA82EB82FC820D831E832F83CE
:10320000388749875A876B877C878D870091760737
:10321000109177074C855D852A853B85ED2CFB80D9
:10322000BC81AD81DE80CF807885698503C0F801DF
:1032300000A911A90115110519F1F801868D978DC5
:1032400084179507A1F7848D958D82179307C1F098
:1032500084898E1561F785898F1549F786898B17C3
:1032600031F787898A1719F7808D8D1501F7818DC0
:103270008C15E9F6828D8717D1F6838D8617B9F6FE
:103280000115110521F482E293E00E949E04C80119
:103290002D960FB6F894DEBF0FBECDBFDF91CF9154
:1032A0001F910F91FF90EF90DF90CF900895CF92F4
:1032B000DF92EF92FF920F931F93CF93DF93CDB7DF
:1032C000DEB72D970FB6F894DEBF0FBECDBFC98213
:1032D000DA82EB82FC820D831E832F833887498735
:1032E0005A876B877C878D87E0917607F091770707
:1032F000309771F10D2D1E2DBF2DAD817E81622F76
:10330000532F2A853B8584898017A9F485898117E5
:1033100091F486898B1779F487898A1761F4808DF7
:10332000871749F4818D861731F4828D851719F43A
:10333000838D841729F0848D958D8217930719F456
:1033400081E090E007C000A8F1A9E02D3097D9F600
:1033500080E090E02D960FB6F894DEBF0FBECDBF93
:10336000DF91CF911F910F91FF90EF90DF90CF9061
:10337000089508956F927F928F929F92AF92BF921D
:10338000CF92DF92EF92FF920F931F930E9433121E
:103390003B014C018091DD069091DE06A091DF0695
:1033A000B091E00664015301A81AB90ACA0ADB0AFF
:1033B000681679068A069B0640F48FEF9FEFAFEF01
:1033C000BFE3A80EB91ECA1EDB1E86017501169545
:1033D0000795F794E7948091D7069091D806A0912D
:1033E000D906B091DA068E199F09A00BB10B9C018A
:1033F000AD0162E080912006909121060E94BF12EB
:10340000FC0190932106809320068091CC06909138
:10341000CD06A091CE06B091CF068E199F09A00BC4
:10342000B10B9C01AD0160E0CF010E94BF129093EF
:103430002106809320068091DD069091DE06A09102
:10344000DF06B091E0068093E6069093E706A0932E
:10345000E806B093E9068091D7069091D806A0912E
:10346000D906B091DA06880F991FAA1FBB1F8A19C7
:103470009B09AC09BD09860D971DA81DB91D809338
:10348000E1069093E206A093E306B093E4068091F0
:10349000CC069091CD06A091CE06B091CF06880FB4
:1034A000991FAA1FBB1F8A199B09AC09BD09860D6C
:1034B000971DA81DB91D8093440690934506A093BF
:1034C0004606B09347061F910F91FF90EF90DF9053
:1034D000CF90BF90AF909F908F907F906F90089506
:1034E000E0918408F0918508F093CC07E093CB0736
:1034F0001186128610928508109284080895CF9341
:10350000DF93EC0140917607509177079A01DA0139
:1035100007C04115510539F0DA01FA0140A951A956
:103520004C175D07B1F74115510529F48DE493E07F
:103530000E949E0413C18091BF069091C006281777
:10354000390749F410927707109276071092C00657
:103550001092BF061FC0FA0180A991A94217530714
:1035600029F4909377078093760714C0FD0180AB10
:1035700091ABFA0180A991A9009729F09093C00618
:103580008093BF0604C0B093C006A093BF06FA01A3
:1035900010AA11AA8B89823009F048C070E04C8DC6
:1035A0005D8D80910F09909110094817590781F09E
:1035B00020910D097F5FE72FFF27EE0FFF1FE65FCA
:1035C000F64F858196814817590711F0271790F714
:1035D000272F3327F901E20FF31FE65FF64F8581AE
:1035E000968148175907E9F460910D09462F552730
:1035F00041505040421753076CF0F901E20FF31F9E
:10360000E65FF64F87819085858396837F5F272FBE
:103610003327F0CF615060930D0980910C098150E0
:1036200093C085E793E00E949E0490C0833009F028
:103630008DC070E04C8950910E0901C07F5F272F2B
:103640003327F90183E0EE0FFF1F8A95E1F7E65F6C
:10365000F64FDF01199681854817E9F49D89FD0130
:1036600081819817C1F49E8982819817A1F49F895E
:103670008381981781F4988D8481981761F4998DCE
:103680008581981741F49A8D8681981721F49B8D36
:103690008781981711F0571788F6F901B3E0EE0FFC
:1036A000FF1FBA95E1F7E65FF64FDF0119968185B6
:1036B000481709F04BC09D89FD018181981709F0D9
:1036C00045C09E898281981709F040C09F898381F7
:1036D0009817E1F5988D84819817C1F5998D8581AA
:1036E0009817A1F59A8D8681981781F59B8D878112
:1036F000981761F580910E09992701978217930712
:10370000DCF048E0F901A3E0EE0FFF1FAA95E1F716
:10371000DF01A55EB64FED5EF64F842F0D9001924E
:103720008A95E1F77F5F272F332780910E0999272C
:1037300001978217930734F780910E098150809387
:103740000E0980910C09805180930C09CE010E94D2
:1037500082348091C20681508093C206DF91CF915E
:103760000895CF93DF93C0917607D0917707209784
:10377000C9F089819A81019789839A83892B69F499
:103780008C81992787709070019721F46B8180EF6D
:103790000E94A818CE010E947F1A08A8D9A9C02D9E
:1037A000209739F7DF91CF9108950F931F938C01E4
:1037B000FC01818192810E948234C8010E9482347E
:1037C0001F910F910895CF93DF93982FC091C30657
:1037D000D091C406FE0106C0209739F0FE0109848D
:1037E000DA85C02D8B818917B9F7209729F486E9EE
:1037F00093E00E949E0419C089859A85EC17FD0705
:1038000049F49093C4068093C3069093BE068093B8
:10381000BD0604C08187928719861A868F81988594
:103820000E948234CE010E948234DF91CF910895AC
:10383000E0918408F09185080184F285E02D3097AD
:1038400019F0838194810895CF0108950895089512
:10385000AF92BF92CF92DF92EF92FF920F931F939E
:10386000CF93DF93CDB7DEB723970FB6F894DEBFC3
:103870000FBECDBFE82E49835A836B83FAA40BA5F4
:103880001CA5ADA4BEA4CFA8D8AC82E390E00E9452
:10389000D333AC014C5F5F4F83E09E012F5F3F4FFE
:1038A000DA01F90101900D928A95E1F744505040F8
:1038B000FA01E382F5A606A717A78091AC079091BD
:1038C000AD0781839283B782848199278770907036
:1038D0000197E9F0BA01655F7F4F9E01215D3F4F7F
:1038E000BB2061F0A28688E0DB01F90101900D9216
:1038F0008A95E1F7FA01C086D18609C0FA01A2864D
:1039000088E0DB01F90101900D928A95E1F78DE0E5
:103910004D5E5F4FDA01E0E1F0E0EC0FFD1F982F04
:1039200001900D929A95E1F7435F5F4FFE017D96FE
:10393000DA0101900D928A95E1F74052504081E002
:10394000FA01808310AA11AAE091BF06F091C00687
:10395000309729F4509377074093760702C040AB25
:1039600051AB5093C0064093BF068889823099F4CA
:1039700020910D09E22FFF27EE0FFF1FE65FF64FA4
:10398000898D9A8D858396832F5F20930D09809171
:103990000C098F5F18C080910E09E82FFF2793E074
:1039A000EE0FFF1F9A95E1F7ED5EF64F98E0DE010E
:1039B00051960D9001929A95E1F78F5F80930E09D1
:1039C00080910C09805F80930C098091C2068F5F03
:1039D0008093C20623960FB6F894DEBF0FBECDBF0C
:1039E000DF91CF911F910F91FF90EF90DF90CF90DB
:1039F000BF90AF900895EF920F931F93CF93DF93F3
:103A0000CDB7DEB7A5970FB6F894DEBF0FBECDBF1A
:103A100029833A834B835C836D837E838F8398876E
:103A200083E08C87898F80919D0790919E078F8B73
:103A3000988F8CA39DA398E0A3EAB7E0FE017A9645
:103A4000292F0D9001922A95E1F7AE014F5F5F4F4C
:103A5000FE013D96DA01292F0D9001922A95E1F79A
:103A600083E289878CEC8A878091EC06803109F0AB
:103A70004FC08091C206823008F04AC01F930F9356
:103A8000ADB7BEB718970FB6F894BEBF0FBEADBFA7
:103A9000EDB7FEB73196DA010D9001929A95E1F7F4
:103AA00081E08F93EF921F921F921F922DB73EB726
:103AB0002D5030400FB6F8943EBF0FBE2DBFADB7AE
:103AC000BEB711968DE0FE017996382F01900D92C8
:103AD0003A95E1F7ADB7BEB71D970FB6F894BEBFE4
:103AE0000FBEADBF1196FE013C9601900D928A95D6
:103AF000E1F749855A856B8580E00E94281C2DB727
:103B00003EB7275D3F4F0FB6F8943EBF0FBE2DBFA7
:103B1000A5960FB6F894DEBF0FBECDBFDF91CF9153
:103B20001F910F91EF900895CF92EF92FF920F9314
:103B30001F93CF93DF93CDB7DEB72B970FB6F894D3
:103B4000DEBF0FBECDBFE982FA820B831C832D83BB
:103B50003E834F83588769877A878B872E2D3F2D29
:103B6000402F512F6D817E818F8198850E94773201
:103B70008C019F938F938EEC93E09F938F930E9481
:103B8000E43480E0C82EE82E29813A814B815C81A3
:103B90006D817E818F8198850E94FB1C0F900F9014
:103BA0000F900F902B960FB6F894DEBF0FBECDBFCF
:103BB000DF91CF911F910F91FF90EF90CF900895DB
:103BC000AF92BF92CF92DF92EF92FF920F931F932B
:103BD000CF93DF93B82E6B01A42E780189018AE080
:103BE00090E00E94D333EC01009729F483EF93E037
:103BF0000E949E041BC0B882C982DA82AB82EC822A
:103C0000FD820E831F8318861986E091D006F091FD
:103C1000D106309729F49093EF068093EE0602C008
:103C200080879187D093D106C093D006CE01DF91D3
:103C3000CF911F910F91FF90EF90DF90CF90BF90A9
:103C4000AF9008950F931F93942FA90198018901B4
:103C50009A01492F0E94E01D9093EF068093EE0693
:103C600081E59DE20E947E041F910F910895BF920D
:103C7000CF92DF92EF92FF920F931F93CF93DF9338
:103C8000F82E6B01142FB22E8BE090E00E94D333FC
:103C9000EC01892B29F483EF93E00E949E041DC060
:103CA000CF82D886198382E08C83FD820B831986AC
:103CB0001A86B8821A82EE82E091BD06F091BE06A5
:103CC000309729F4D093C406C093C30602C0C187BD
:103CD000D287D093BE06C093BD06CE01DF91CF91AF
:103CE0001F910F91FF90EF90DF90CF90BF900895BC
:103CF000CF92DF92EF92FF920F931F936B010E947E
:103D0000980F7B018C01C6010E948234C801B70163
:103D10001F910F91FF90EF90DF90CF900895CF9279
:103D2000DF92EF92FF920F931F93CF93DF9386E67C
:103D300090E00E94D333EC018091F3078883909147
:103D4000F4079983D090EB07DA8213E0F82EF6940B
:103D5000F694F694F694F69481E0F82200E0C09090
:103D60007609E92FFF27EC70F070E830F10559F182
:103D7000E930F1051CF43497A1F137C0EC30F105BE
:103D8000A1F58091DA078B838091DB078C8380918A
:103D9000D0078D838091D1078E838091D2078F8346
:103DA0008091D30788878091D40789878091D50730
:103DB0008A878091D6078B87EC0FFD1F8091D707EC
:103DC00080831DE012C08091DA078B838091DB072E
:103DD0008C838091D8078D838091D9078E8317E0DB
:103DE00004C08EE094E00E949E048091F40799271D
:103DF000807C90708038910509F451C0813891051C
:103E00002CF48034910509F467C06AC0803C9105A8
:103E100009F066C0FE01E10FF11D8091E707808384
:103E20001F5FFE01E10FF11D8091E80780831F5F96
:103E3000FE01E10FF11D8091DD0780831F5FFE0110
:103E4000E10FF11D8091DE0780831F5FFE01E10F0E
:103E5000F11D8091DF0780831F5FFE01E10FF11DDF
:103E60008091E00780831F5FFE01E10FF11D8091CB
:103E7000E10780831F5FFE01E10FF11D8091E207E2
:103E800080831F5FFE01E10FF11D8091E3078083B6
:103E90001F5FFE01E10FF11D8091E4071AC0FE01D2
:103EA000E10FF11D8091E70780831F5FFE01E10FA5
:103EB000F11D8091E80780831F5FFE01E10FF11D76
:103EC0008091E50780831F5FFE01E10FF11D809166
:103ED000E60780831F5F04C083E394E00E949E0492
:103EE0008091E90799278130910509F4B5C08230A6
:103EF00091051CF4892B29F02EC1039709F4C2C047
:103F00002AC1FE01E10FF11D80915F0880831F5FD0
:103F1000FE01E10FF11D8091600880831F5FFE01AB
:103F2000E10FF11D10821F5FFE01E10FF11D809175
:103F3000610880831F5F809162088823A9F0982F11
:103F4000A4E6B8E0FE01E10FF11D8C9180831F5FB4
:103F50009E01210F311DFD018181F90180831F5FC9
:103F600091501296992371F780916308882309F480
:103F700046C0A8E6B8E0982FFE01E10FF11D8C9134
:103F800080831F5F9E01210F311DFD018181F90199
:103F900080831F5F9E01210F311DFD018281F90188
:103FA00080831F5F9E01210F311DFD018381F90177
:103FB00080831F5F9E01210F311DFD018481F90166
:103FC00080831F5F9E01210F311DFD018581F90155
:103FD00080831F5F9E01210F311DFD018681F90144
:103FE00080831F5F9E01210F311DFD018781F90133
:103FF00080831F5F91501896992309F0BDCFFE0171
:10400000E10FF11D8091F70780831F5F882359F02E
:10401000A8EFB7E0982FFE01E10FF11D8D9180838D
:104020001F5F9150C1F7BE01812F0E94781EDC01F5
:10403000CB018093DD069093DE06A093DF06B0935C
:10404000E0061092D60580E18093EC0686E00E949F
:10405000F30F8AEB99E1B2C0FE01E10FF11D8091EF
:10406000F60780831F5F882309F475C0A8EFB7E0C7
:10407000982FFE01E10FF11D8D9180831F5F9150FC
:10408000C1F769C0FE01E10FF11D8091EA0780834D
:104090001F5F082F99278230910591F08330910599
:1040A0001CF4019739F057C083309105E9F0089767
:1040B00009F151C0FE01E10FF11D80915E0849C078
:1040C000FE01E10FF11D8091780880831F5FFE01E2
:1040D000E10FF11D8091790880831F5FFE01E10FE0
:1040E000F11D80917A0835C0FE01E10FF11D80912C
:1040F0007B082FC0FE01E10FF11D80917C088083B9
:104100001F5FFE01E10FF11D80917D0880831F5F1D
:10411000FE01E10FF11D80917E0880831F5FFE018B
:10412000E10FF11D80917F0880831F5FFE01E10F89
:10413000F11D8091800880831F5FFE01E10FF11D5A
:104140008091810880831F5FFE01E10FF11D809146
:10415000820880831F5FE02E0D2D2F2D4C2DBE0178
:10416000812F0E94371E8C019093C4068093C30652
:104170008091B907282F33278091BA07E82FFF27AE
:10418000EF012196CE0165E070E00E94A338281768
:10419000390729F488E594E00E949E0411C0EE0FCF
:1041A000FF1FE155F84F00831183CE0165E070E0F9
:1041B0000E94A3388093BA078FE691E30E947E04A1
:1041C000DF91CF911F910F91FF90EF90DF90CF90F3
:1041D0000895CF93DF931092E90790918E07292FCE
:1041E0009F5F90938E072093EB071092CF0720914B
:1041F0009D0730919E073093E8072093E7078823B7
:1042000061F082E08093DC078091A1079091A20782
:104210009093E6078093E5070CC083E08093DC076A
:1042200088E0A3EAB7E0EDEDF7E00D9001928A9502
:10423000E1F780910A0990910B09909360088093AF
:104240005F0880910C098093610880910D0980932B
:104250006208882359F0282FA4E6B8E0EFE0F9E0DF
:10426000819191918D939D932150D1F780910E0969
:1042700080936308882391F098E0A8E6B8E043E1D2
:1042800059E0282FED01FA01892F019009928A95B2
:10429000E1F7485F5F4F18962150A1F780912309FD
:1042A0008093F707882349F0A8EFB7E0E4E2F9E04C
:1042B000282F81918D932150E1F71092F30780917F
:1042C000DC078295880F880F807C8093F40781EB50
:1042D0009BE10E947E040E948F1EDF91CF91089582
:1042E000CF92DF92EF92FF920F931F93CF93DF93C2
:1042F000CDB7DEB728970FB6F894DEBF0FBECDBF9F
:10430000E982FA820B831C832D833E834F83588777
:1043100082E08093EA0793E09093E9078091990700
:10432000282F8F5F809399072093EB079093DC07EA
:104330009093CF0780919D0790919E079093E807F7
:104340008093E7079093DB078093DA070DED17E082
:1043500088E023EA37E0D801F901982F01900D9207
:104360009A95E1F7F8013D97DE0111960D900192C3
:104370008A95E1F7D0927908C092780860937A081C
:1043800083E28093F3078CEC8093F4070E948F1EE6
:1043900028960FB6F894DEBF0FBECDBFDF91CF9148
:1043A0001F910F91FF90EF90DF90CF9008958F9223
:1043B0009F92AF92BF92CF92DF92EF92FF920F93B4
:1043C0001F93CF93DF93CDB7DEB72D970FB6F89439
:1043D000DEBF0FBECDBFA982BA82CB82DC82ED8266
:1043E000FE820F83188729873A874B875C876D8702
:1043F00078E07093EA0763E06093E907909199078A
:10440000292F9F5F909399072093EB076093DC0718
:104410000DED17E023EA37E0D801F901972F01905D
:104420000D929A95E1F740919D0750919E07509308
:10443000E8074093E7072091C5063091C606309300
:10444000DB072093DA07882399F06093CF07F80100
:104450003D97DE0112960D9001927A95E1F79092C8
:1044600082088092810883E28093F3078CEC0EC06F
:1044700082E08093CF073093D9072093D8073093F9
:104480008208209381086093F30788EC8093F407F7
:1044900050937D0840937C088091A1079091A207DA
:1044A00090937F0880937E088091400680938008D7
:1044B0000E948F1E2D960FB6F894DEBF0FBECDBFA3
:1044C000DF91CF911F910F91FF90EF90DF90CF90F0
:1044D000BF90AF909F908F9008958F929F92AF92D0
:1044E000BF92CF92DF92EF92FF920F931F93CF93E1
:1044F000DF93CDB7DEB72D970FB6F894DEBF0FBEB2
:10450000CDBF8090C5069090C606A980BA80CB80AA
:10451000DC80ED80FE800F81188529853A854B85EA
:104520005C856D8580E00E94D72180E18093EC0658
:104530002D960FB6F894DEBF0FBECDBFDF91CF91A1
:104540001F910F91FF90EF90DF90CF90BF90AF90B1
:104550009F908F9008958F929F92AF92BF92CF922B
:10456000DF92EF92FF920F931F93CF93DF93CDB71C
:10457000DEB765970FB6F894DEBF0FBECDBF2983B7
:104580003A834B835C836D837E838F839887480156
:1045900093E09987022F132F242F352F462F572F63
:1045A0006F8178850A871B872C873D874E875F87B9
:1045B000688B798BEE20A1F08091EC06803181F43C
:1045C000A92EB02EC12ED22EE32EF42E052F162F9B
:1045D000272F3A894B895C896D8981E00E94D72118
:1045E00065960FB6F894DEBF0FBECDBFDF91CF91B9
:1045F0001F910F91FF90EF90DF90CF90BF90AF9001
:104600009F908F900895CF92EF920F931F93CF9327
:10461000DF93CDB7DEB728970FB6F894DEBF0FBE95
:10462000CDBF29833A834B835C836D837E838F83E5
:1046300098878CE694E00E94F93429813A814B8175
:104640005C816D817E818F8198850E947732CC2438
:1046500021E0E22E8C0129813A814B815C816D81C0
:104660007E818F8198850E94AB2228960FB6F894A0
:10467000DEBF0FBECDBFDF91CF911F910F91EF90A5
:10468000CF9008958F929F92AF92BF92CF92DF9278
:10469000EF92FF920F931F93CF93DF93CDB7DEB7C7
:1046A000DC01522F1092230910920E0910920D096D
:1046B000E22FFF279F0174E0220F331F7A95E1F765
:1046C000942F922B90930A09002311F08FEC01C0D4
:1046D0008FE880930B09B0939E07A0939D074093AA
:1046E00089075093AB076093400680EA90E0A0E012
:1046F000B0E07C018D0104C0EE0CFF1C001F111FF7
:104700004A95D2F7E092CC06F092CD060093CE0601
:104710001093CF0604C0880F991FAA1FBB1FEA95EC
:10472000D2F78093D7069093D806A093D906B0937A
:10473000DA0680E00E94BB10CC2021F481E00E94C8
:10474000E92021C08090C5069090C606A090AF06D3
:10475000B090B006C090B106D090B206E090B3061B
:10476000F090B4060091B5061091B6062091B706F8
:104770003091B8064091B9065091BA066091BB06D7
:1047800080E00E94D721DF91CF911F910F91FF9080
:10479000EF90DF90CF90BF90AF909F908F90089553
:1047A0000F931F9386E08093EA0733E03093E90785
:1047B00080919907982F8F5F809399079093EB07CB
:1047C0003093DC0782E08093CF078091C5069091FB
:1047D000C6069093E8078093E70728E0A3EAB7E0CE
:1047E000EDEDF7E00D9001922A95E1F79093DB074C
:1047F0008093DA079093D9078093D8073093F30713
:1048000088EC8093F4070E948F1E00E416E021E0FC
:104810004091EB07622F80918408909185080E9457
:10482000001590938508809384081F910F91089537
:10483000EF92FF920F931F93CF93DF93E091CB07FB
:10484000F091CC07828199278230910509F4E6C066
:104850008330910534F4009761F0019709F466C044
:1048600011C18330910509F46FC0049709F403C1A5
:1048700009C181810E94DB18EC01892B09F402C176
:104880008C81882369F18091B907282F3327809183
:10489000BA07E82FFF278F010F5F1F4FC80165E0A0
:1048A00070E00E94A3382817390729F488E594E0BE
:1048B0000E949E0411C0EE0FFF1FE155F84FC08308
:1048C000D183C80165E070E00E94A3388093BA07E5
:1048D0008FE691E30E947E048C8181508C83D2C04C
:1048E0008E8199278130910549F0823091051CF421
:1048F000892B81F017C0039791F014C08091EC06CA
:10490000833081F469EE8091C5069091C6060E94BD
:104910003D1708C0698189EE0E94A81803C089EE7E
:104920000E9489178B810E94E31BACC08091EC062A
:10493000833009F473C0813109F470C0883009F004
:10494000A1C00E94D0239EC08091EC06873009F060
:1049500099C0C091C806D091C906E091CA06F091ED
:10496000CB06CE01DF010090750704C0B695A79570
:10497000979587950A94D2F721E030E040E050E027
:1049800082279327A427B52781709070892BA1F0E7
:10499000809175078F5F80937507803108F046C05E
:1049A0007E018F0104C016950795F794E7948A95C8
:1049B000D2F7D801C701E4CF80917507982F8F5F98
:1049C00080937507692F80E00E94BB1086E00E94EB
:1049D000F30F84E08093D6050091EA061091EB0670
:1049E00023E040E061E080918408909185080E9476
:1049F0000015909385088093840880917507992706
:104A000001979F938F938AE994E09F938F930E94DD
:104A1000E4340F900F900F900F9034C06BEE8091A4
:104A2000C5069091C6060E943D172CC085E0809374
:104A3000D60588E00E94F30F0DB71EB7045810404A
:104A40000FB6F8941EBF0FBE0DBFADB7BEB711961F
:104A500084E8E6E8F8E001900D928A95E1F70E947B
:104A6000ED168DB79EB78C579F4F0FB6F8949EBF2B
:104A70000FBE8DBF0DC08091E506882319F080EE32
:104A80000E946D228091CB079091CC070E948234C6
:104A9000DF91CF911F910F91FF90EF9008954F926A
:104AA0005F926F927F928F929F92AF92BF92CF92BE
:104AB000DF92EF92FF920F931F93CF93DF934A0100
:104AC0005B01C0EAD0E002C0CC0FDD1F2A95E2F7FF
:104AD000C056DF4F10928C08282F33272130310524
:104AE00009F472C02230310524F42115310531F06A
:104AF000DBC02330310509F4D2C0D6C085E08093F5
:104B0000EC068093D60570908C08290181E090E036
:104B1000042C02C0880F991F0A94E2F7AA2797FD78
:104B2000A095BA2F88219921AA21BB210097A10520
:104B3000B105A1F10E9433126B017C01CE01AA27BD
:104B4000BB27880F991FAA1FBB1FC80ED91EEA1EBC
:104B5000FB1EE0E86E2E672D80E00E94BB108C01EA
:104B600086E00E94F30F0730C9F405C00E94D50FFC
:104B700096150CF0692E0E943312DC01CB018C15C6
:104B80009D05AE05BF0591F780918C08E82FFF27A2
:104B9000EA57F74F67828F5F80938C0880918C086B
:104BA000803140F473940894411C511C8FE08715A8
:104BB00008F0ACCF86E08093EC0685E08093D605C4
:104BC00088E00E94F30F70C0109275074093C806EA
:104BD0005093C9066093CA067093CB06D093EB0638
:104BE000C093EA060E948C0E8091C5069091C6067D
:104BF0000E941E0E8091C5069091C6060E944A0E24
:104C000087E08093EC06D501C4010090750704C0CD
:104C1000B695A795979587950A94D2F721E030E04D
:104C200040E050E082279327A427B5278170907039
:104C3000892B99F0809175078F5F8093750780317C
:104C400099F1F501E40104C0F695E795D795C7956C
:104C50008A95D2F7CE01DF01E5CF80917507982FB5
:104C60008F5F80937507692F80E00E94BB100091D1
:104C7000EA061091EB0623E040E061E080918408B1
:104C8000909185080E940015909385088093840870
:104C900086E00E94F30F84E08093D60505C088E08B
:104CA0008093EC060E94D023DF91CF911F910F914A
:104CB000FF90EF90DF90CF90BF90AF909F908F903C
:104CC0007F906F905F904F90089526E048E050E00D
:104CD00060E070E081E00E944F25089585E08093B8
:104CE000EA0723E02093E90780919907982F8F5FC7
:104CF000809399079093EB072093DC0782E08093E1
:104D0000CF0780919D0790919E079093E80780932D
:104D1000E7079093DB078093DA0788E0A3EAB7E020
:104D2000EDEDF7E00D9001928A95E1F780919707FC
:104D3000909198079093D9078093D80783E2809346
:104D4000F30788EC8093F4070E948F1E08950F9359
:104D50001F93CF93DF93CDB7DEB728970FB6F894A4
:104D6000DEBF0FBECDBF09831A832B833C834D83E7
:104D70005E836F83788723E02093EA072093E90717
:104D800090919907392F9F5F909399073093EB0784
:104D90002093DC072093CF0720919D0730919E0739
:104DA0003093E8072093E7073093DB072093DA0777
:104DB0006DED77E098E043EA57E0DB01FA01292F37
:104DC00001900D922A95E1F7FB013D97DE011196C6
:104DD0000D9001929A95E1F780937B0883E280938E
:104DE000F3078CEC8093F4070E948F1E28960FB671
:104DF000F894DEBF0FBECDBFDF91CF911F910F9111
:104E00000895FF920F931F93CF93DF93CDB7DEB733
:104E1000A5970FB6F894DEBF0FBECDBF29833A83A6
:104E20004B835C836D837E838F839887F02E83E032
:104E30008C87898F80919D0790919E078F8B988F8B
:104E40008CA39DA363EA77E048E0FE017A96DB013C
:104E5000242F0D9001922A95E1F783E289878CEC4B
:104E60008A878091EC06803109F078C08091C20673
:104E70009E01235F3F4F833008F056C0BE016F5F35
:104E80007F4FD901FB01842F01900D928A95E1F7A4
:104E90008091C5069091C6069F938F93ADB7BEB71C
:104EA00018970FB6F894BEBF0FBEADBFEDB7FEB7F3
:104EB0003196DB010D9001924A95E1F71F920F9315
:104EC0001F921F921F92EDB7FEB73D970FB6F89451
:104ED000FEBF0FBEEDBFADB7BEB711968DE0FE01B0
:104EE0007996282F01900D922A95E1F7ADB7BEB7BC
:104EF0001D970FB6F894BEBF0FBEADBF1196FE0151
:104F00003C9601900D928A95E1F749855A856B850B
:104F100080E00E94281CEDB7FEB7B9960FB6F89452
:104F2000FEBF0FBEEDBF1AC0FB017497D9010190FF
:104F30000D924A95E1F700918F071091900720910B
:104F40009107309192074091930750919407609197
:104F50009507709196078F2D0E94A726A5960FB6EC
:104F6000F894DEBF0FBECDBFDF91CF911F910F919F
:104F7000FF9008958F92AF92BF92CF92DF92EF92FF
:104F8000FF920F931F93CF93DF93CDB7DEB72D978B
:104F90000FB6F894DEBF0FBECDBFA982BA82CB8216
:104FA000DC82ED82FE820F83188729873A874B8740
:104FB0005C876D8781E08093EA0723E02093E9070F
:104FC00080919907982F8F5F809399079093EB07B3
:104FD0002093DC076FEC77E08DE0AE014F5F5F4F11
:104FE000DB01FA0101900D928A95E1F78091C506E7
:104FF0009091C6069093E8078093E707FB013E96E1
:1050000088E0A3EAB7E00D9001928A95E1F78092DB
:105010005E0883E28093F3078091CF07282F332720
:10502000220F331F220F331F8091DC079927A6E040
:10503000880F991FAA95E1F7822B8093F4070E94AD
:105040008F1E2D960FB6F894DEBF0FBECDBFDF9139
:10505000CF911F910F91FF90EF90DF90CF90BF9075
:10506000AF908F900895CF92DF92EF92FF920F93BF
:105070001F93CF93DF93CDB7DEB765970FB6F89444
:10508000DEBF0FBECDBFC982DA82EB82FC820D8308
:105090001E832F83388769874C8B5D8B633051F477
:1050A00088E0DE011196FE013A960D9001928A95F4
:1050B000E1F706C0623021F489819A818A8B9B8B4B
:1050C00065960FB6F894DEBF0FBECDBFDF91CF91CE
:1050D0001F910F91FF90EF90DF90CF9008956F9206
:1050E0007F928F929F92AF92BF92CF92DF92EF9278
:1050F000FF920F931F93CF93DF93CDB7DEB72D971A
:105100000FB6F894DEBF0FBECDBF3C01562F89828B
:105110009A82AB82BC82CD82DE82EF82F8860987DA
:105120001A872B873C874D872BA51092EA0781E0D1
:105130008093E90780919907982F8F5F8093990753
:105140009093EB078DE06FEC77E08E010F5F1F4FC0
:10515000DB01F801982F01900D929A95E1F7FB0180
:105160003D96AEE1B0E0AC0FBD1F0D9001928A9567
:10517000E1F75093F6072093ED07852F99270097C5
:1051800051F0FB01B9969C01D3018D913D018193B2
:1051900021503040C9F7C980DA80EB80FC800D8156
:1051A0001E812F81388549855A856B857C858D8543
:1051B0000E945719882311F081E301C081E2809396
:1051C000F3078091CF07282F3327220F331F220F99
:1051D000331F8091DC07992716E0880F991F1A95D5
:1051E000E1F7822B8093F4070E948F1E2D960FB655
:1051F000F894DEBF0FBECDBFDF91CF911F910F910D
:10520000FF90EF90DF90CF90BF90AF909F908F90E6
:105210007F906F9008956F927F928F929F92AF923E
:10522000BF92CF92DF92EF92FF920F931F93CF9393
:10523000DF93CDB7DEB72D970FB6F894DEBF0FBE64
:10524000CDBFC982DA82EB82FC820D831E832F835D
:10525000388749875A876B877C878D870E94E91832
:105260003C01C980DA80EB80FC800D811E812F819A
:10527000388549855A856B857C858D850E945719AF
:10528000882309F49AC061147104A1F1F301668DB9
:10529000778D4C855D85EA80FB800C811D81BE8108
:1052A000AF81D884C9842A853B8564177507F9F4D2
:1052B000F30184898E15A9F485898F1591F4868967
:1052C000801779F48789811761F4808D8B1749F4F1
:1052D000818D8A1731F4828D8D1519F4838D8C158B
:1052E00049F0F301848D958D8217930719F06114AD
:1052F0007104D9F6F3018481992787709070019722
:10530000B9F583818F938DB79EB70D970FB6F8943B
:105310009EBF0FBE8DBFEDB7FEB73196A0E2B0E0E5
:105320006A0E7B1E8DE0D3010D9001928A95E1F704
:10533000E0EEFFEF6E0E7F1EF30183889488A58850
:10534000B688C788D08CE18CF28C038D148D258DA6
:10535000368D478D65A586A597A50E946F288DB7C8
:105360009EB70E960FB6F8949EBF0FBE8DBF22C09B
:10537000F3018781882391F0C084D184E384F4848D
:1053800005851685278530894189528962858091F6
:105390009707909198070E9470210CC0F301038534
:1053A000148525853685478550896189728982856E
:1053B0000E94A726C3010E947F1A2D960FB6F8946B
:1053C000DEBF0FBECDBFDF91CF911F910F91FF9038
:1053D000EF90DF90CF90BF90AF909F908F907F9095
:1053E0006F9008956F927F928F929F92AF92BF922B
:1053F000CF92DF92EF92FF920F931F93CF93DF93A1
:10540000CDB7DEB760970FB6F894DEBF0FBECDBF45
:10541000C982DA82EB82FC820D831E832F83388758
:1054200049875A876B877C878D876EA56FA478A87C
:1054300079A98AA9282F3327C9019695879596952A
:10544000879541E050E0842395238417950779F1EF
:105450007F932DB73EB72D5030400FB6F8943EBF26
:105460000FBE2DBFEDB7FEB7E40FF51F8DE0A1E233
:10547000B0E0AC0FBD1F0D9001928A95E1F78980D5
:105480009A80AB80BC80CD80DE80EF80F884098577
:105490001A852B853C854D85C3010E946F2880E1CC
:1054A0008093EC062DB73EB7225F3F4F6AC09981CB
:1054B000923008F46FC0217030702417350711F056
:1054C00081E001C081E28E87892F9927880F991F7B
:1054D000880F991F29A12295220F220F207C2823B3
:1054E0002F878091C206833008F051C08091C50695
:1054F0009091C6069F938F938DB79EB708970FB66E
:10550000F8949EBF0FBE8DBFADB7BEB7119688E0B1
:10551000E8E7F7E001900D928A95E1F71F921F925C
:105520007F926F926F93ADB7BEB71D970FB6F89489
:10553000BEBF0FBEADBFEDB7FEB731968DE0A1E2A5
:10554000B0E0AC0FBD1F282F0D9001922A95E1F716
:10555000ADB7BEB71D970FB6F894BEBF0FBEADBFB7
:105560001196FE01319601900D928A95E1F74E85D4
:105570005F856889872F0E94281C2DB73EB7275D5D
:105580003F4F0FB6F8943EBF0FBE2DBF07C0672F29
:1055900081EF02C0672F88EE0E94A81860960FB6B0
:1055A000F894DEBF0FBECDBFDF91CF911F910F9159
:1055B000FF90EF90DF90CF90BF90AF909F908F9033
:1055C0007F906F90089584E08093EA0783E0809352
:1055D000E90780919907982F8F5F8093990790939F
:1055E000EB0720919D0730919E073093E8072093A9
:1055F000E7078091EC06833019F41092CF070FC0B3
:1056000082E08093CF0780919707909198079093BD
:10561000D9078093D8073093DB072093DA072091CE
:10562000A1073091A2078091C5069091C606281760
:10563000390739F08091CD079091CE0728173907A7
:1056400069F483E08093DC0788E0A3EAB7E0EDED3E
:10565000F7E00D9001928A95E1F707C082E0809310
:10566000DC073093E6072093E50783E28093F30796
:105670008091CF07282F3327220F331F220F331F8C
:105680008091DC07992756E0880F991F5A95E1F71A
:10569000822B8093F4070E948F1E08951F93CF934F
:1056A000DF93CDB7DEB760E08091EC06873009F07C
:1056B00055C081E0809387086093860820918C080C
:1056C000263098F143E080918408909185080E94EB
:1056D000851590938508809384088DB79EB784586C
:1056E00090400FB6F8949EBF0FBE8DBFADB7BEB74A
:1056F000119684E8E6E8F8E001900D928A95E1F7CA
:105700000E94ED168AE08093EC068DB79EB78C5709
:105710009F4F0FB6F8949EBF0FBE8DBF88E00E94CA
:10572000F30F85E08093D60564C0332789E190E0CC
:10573000289FF001299FF00D389FF00D1124E357A9
:10574000F74F89E1DE0117960D9001928A95E1F7F6
:1057500080918C088F5F80938C084BC089A168175B
:1057600078F44091A1075091A207282FFE01B3962B
:10577000819191918417950709F461E02150C1F757
:105780008AA1882391F11091A307B091A407A09159
:10579000A5077091A6075091A7074091A8073091DF
:1057A000A9079091AA07E6E0F0E0EC0FFD1F282F73
:1057B00081A18117B1F482A18B1799F483A18A1773
:1057C00081F484A1871769F485A1851751F486A116
:1057D000841739F487A1831721F480A5891709F468
:1057E00061E021503896222319F7662311F00E94B8
:1057F000E32ADF91CF911F910895CF92DF92EF922C
:10580000FF920F931F93CF93DF9380917209992793
:105810008130910509F45CC08230910524F4892B14
:1058200009F41AC135C18230910521F0039709F4BA
:1058300098C02EC1809174090E94DB18FC01892B4D
:1058400009F426C1868199278130910561F0823063
:1058500091051CF4892B79F136C08330910581F1D3
:10586000049769F030C085EC94E00E94F93480918F
:10587000EC06823041F583E08093EC0624C082EF91
:1058800094E00E94F93404EC14E022E040E061E08E
:1058900080918408909185080E9400159093850856
:1058A000809384081092D60583E08093EC0686E00E
:1058B0000E94F30F08C0618180E00E94A81803C015
:1058C00080E00E948917809174090E94E31BE0C068
:1058D0008091EC06803109F0DBC025E639E08DE0EF
:1058E000A1EFB6E0ED01F901982F019009929A9588
:1058F000E1F71D96F9013D97ED01019009928A9516
:10590000E1F71D978091770980930B0780917F09BC
:1059100080930E07882341F05E96F9017C96982FBC
:1059200081918D939150E1F7EDB7FEB7E458F040C7
:105930000FB6F894FEBF0FBEEDBF319684E8A1EF1D
:10594000B6E00D9001928A95E1F70E94B0188DB7EC
:105950009EB78C579F4F0FB6F8949EBF0FBE8DBF5A
:1059600097C08091730999278430910509F457C035
:105970008530910554F48230910509F489C0833053
:105980009105B4F5019749F083C08630910509F47B
:1059900067C006970CF460C07BC08091EC06803134
:1059A00009F076C08091E7098093C80788E0A6E6F1
:1059B000B9E0E0ECF7E00D9001928A95E1F7E09014
:1059C000C007F090C1070091C2071091C307209152
:1059D000C4073091C5074091C6075091C707609131
:1059E000C8077091C9078091CA070E94941D50C0D2
:1059F000CC24EC2C0091040A2091660930916709AF
:105A0000409168095091690960916A0970916B0928
:105A100080916C0990916D090E946A1739C0C090FD
:105A20006509D0906609E0906709F09068090091D7
:105A3000690910916A0920916B0930916C094091B4
:105A40006D0950916E0960916F0970917009809194
:105A500071090E940B291CC08EEE0E946D2218C095
:105A60008091EC068031A1F4EE240E2D2091660980
:105A700030916709409168095091690960916A09FC
:105A800070916B0980916C0990916D090E940323BC
:105A9000DF91CF911F910F91FF90EF90DF90CF900A
:105AA00008951F93CF93DF93C091EE06D091EF0638
:105AB0008091D0069091D1068C179D0731F488858E
:105AC00099859093D1068093D00688859985909387
:105AD000EF068093EE0628812250209375098B8172
